:100000000C942A000C9447000C9447000C94470071
:100010000C948E0C0C9447000C9447000C944700F1
:100020000C9447000C94EF0E0C9447000C9447007E
:100030000C9447000C9447000C948F140C944700C8
:100040000C9447000C9447000C9447000C94470014
:100050000C94470011241FBECFE5D4E0DEBFCDBF16
:1000600010E0A0E6B0E0E0E4F8E302C005900D92F5
:10007000A837B107D9F720E0A8E7B0E001C01D928A
:10008000A73FB207E1F70E94F1160C941E1C0C94D6
:100090000000CF93DF9300D0CDB7DEB789836A83AA
:1000A0008CE390E0FC018081882F90E0827099279A
:1000B000892BB1F78981882F90E0805090406A8128
:1000C0000E94111C0F900F90DF91CF910895CF9354
:1000D000DF931F92CDB7DEB789838CE390E0FC01FC
:1000E0008081882F90E082709927892BB1F78981D0
:1000F000882F90E0805090400E94091C0F90DF9163
:10010000CF910895CF93DF9300D000D01F92CDB749
:10011000DEB76A837B838C839D8314C0198204C0FD
:10012000000089818F5F898389818F39C8F38A8133
:100130009B81AC81BD810197A109B1098A839B8311
:10014000AC83BD838A819B81AC81BD81892B8A2B45
:100150008B2B21F70F900F900F900F900F90DF9146
:10016000CF910895CF93DF93CDB7DEB788E290E0CB
:10017000FC018081882F90E080729927892BA9F15A
:1001800083E590E0FC0110828FE490E0FC01108296
:100190008EE490E0FC01108289E590E020E4FC010F
:1001A000208386E290E0FC01108288E390E0FC016D
:1001B000108285E390E0FC01108282E390E0FC0174
:1001C00010828BE390E0FC0110826BE070E080E035
:1001D00090E00E94820081E08093D90085E590E064
:1001E00020E7FC01208388950000DF91CF910895DE
:1001F000CF93DF93CDB7DEB728970FB6F894DEBF65
:100200000FBECDBF8091C00080628093C00000000F
:1002100086E390E0FC018081882F90E0807499272C
:10022000892BB1F3AAC20E94B20086E390E0FC01E0
:100230008081882F90E080729927892B09F027C14F
:1002400086E390E0FC01808188230CF020C186E3E6
:1002500090E0FC018081882F90E080749927892BA1
:1002600009F415C169E170E080E090E00E9482002D
:1002700086E390E0FC018081882F90E080729927CE
:10028000892B09F004C186E390E0FC01808188237A
:100290000CF0FDC086E390E0FC018081882F90E0A7
:1002A00080749927892B09F4F2C08091D300882F9C
:1002B00090E09C0128573F4FF90120812F5F88571C
:1002C0009F4FFC0120838091D300882321F08091EF
:1002D000D3008530C0F08091D3008A30A1F08091A6
:1002E000D3008C3081F08091D3008D3061F080910B
:1002F000D3008E3041F08091D3008F3021F0809177
:10030000D3008031A9F48091D300882F90E08857E2
:100310009F4FFC018081823050F08091D300882F64
:1003200090E088579F4F21E0FC01208358C057C0C0
:100330008091D3008823A9F48091D300882F90E086
:1003400088579F4FFC018081833008F448C080911A
:10035000D300882F90E088579F4F22E0FC01208334
:100360003EC08091D3008B3039F58091D300882F27
:1003700090E088579F4FFC0180818A3048F080913F
:10038000D300882F90E088579F4F29E0FC012083FD
:100390008091D300882F90E088579F4FFC01808187
:1003A0008823E9F48091D300882F90E088579F4FED
:1003B00021E0FC01208313C08091D300882F90E0BE
:1003C00088579F4FFC0180818B3048F08091D3008B
:1003D000882F90E088579F4F2AE0FC0120831092DD
:1003E000C2008091D300882F90E088579F4FFC0176
:1003F00090818DEC989F812D112486958695869508
:100400008093D1008091D300882F90E088579F4F30
:10041000FC0190818DEC989F812D11248695869505
:100420008695880F282F220F220F820FF92FF81B95
:100430008F2F8093D0008091D00080938000809196
:10044000D100809381008091D300882F90E04E9658
:100450002AE030E0B9010E94C71B8093820080919E
:10046000D300882F90E04E962AE030E0B9010E9438
:10047000C71BCB0180938300000086E390E0FC0162
:100480008081882F90E080729927892BB1F386E3D1
:1004900090E0FC018081882F90E080729927892B61
:1004A00009F420C186E390E0FC01808188230CF4EC
:1004B00019C186E390E0FC018081882F90E0807470
:1004C0009927892B09F40EC169E170E080E090E082
:1004D0000E94820086E390E0FC018081882F90E0FA
:1004E00080729927892B09F4FDC086E390E0FC0116
:1004F000808188230CF4F6C086E390E0FC018081C3
:10050000882F90E080749927892B09F4EBC08091A3
:10051000D300882F90E09C0128573F4FF90120819C
:10052000215088579F4FFC0120838091D30088235E
:1005300021F08091D3008530C0F08091D3008A30C3
:10054000A1F08091D3008C3081F08091D3008D3068
:1005500061F08091D3008E3041F08091D3008F30D4
:1005600021F08091D3008031A1F48091D300882FB5
:1005700090E088579F4FFC018081823048F0809145
:10058000D300882F90E088579F4FFC01108256C0FF
:1005900055C08091D3008823A1F48091D300882F87
:1005A00090E088579F4FFC018081853008F446C059
:1005B0008091D300882F90E088579F4FFC011082D4
:1005C0003DC08091D3008B3039F58091D300882FC6
:1005D00090E088579F4FFC0180818A3048F08091DD
:1005E000D300882F90E088579F4F29E0FC0120839B
:1005F0008091D300882F90E088579F4FFC01808125
:100600008823E1F48091D300882F90E088579F4F92
:1006100021E0FC01208312C08091D300882F90E05C
:1006200088579F4FFC0180818B3040F08091D30030
:10063000882F90E088579F4FFC0110821092C200D3
:100640008091D300882F90E088579F4FFC019081C4
:100650008DEC989F812D11248695869586958093A3
:10066000D1008091D300882F90E088579F4FFC01E4
:1006700090818DEC989F812D112486958695869585
:10068000880F282F220F220F820FF92FF81B8F2F90
:100690008093D0008091D000809380008091D10021
:1006A000809381008091D300882F90E04E962AE0BD
:1006B00030E0B9010E94C71B809382008091D30073
:1006C000882F90E04E962AE030E0B9010E94C71BC7
:1006D000CB0180938300000086E390E0FC018081E1
:1006E0008823D4F786E390E0FC018081882F90E096
:1006F00080729927892B09F440C086E390E0FC01C1
:1007000080818823D4F586E390E0FC018081882FE6
:1007100090E080749927892B81F569E170E080E091
:1007200090E00E94820086E390E0FC018081882FA7
:1007300090E080729927892B01F186E390E0FC011B
:1007400080818823D4F486E390E0FC018081882FA7
:1007500090E080749927892B81F41092C2008091D7
:10076000D300882F90E088579F4FFC0190818091A3
:10077000D300692F0E94490005C08091C2008E31CC
:1007800008F451CD8091C0008F7D8093C0002896E1
:100790000FB6F894DEBF0FBECDBFDF91CF910895A5
:1007A0000F931F93CF93DF93CDB7DEB72C970FB680
:1007B000F894DEBF0FBECDBF8091C00084608093EF
:1007C000C0008091D300082F10E08091D3000E94D8
:1007D0006700282FC80188579F4FFC012083809114
:1007E000D300882F90E088579F4FFC0190818DECBB
:1007F000989F812D11248695869586958093D100AA
:100800008091D300882F90E088579F4FFC01908102
:100810008DEC989F812D1124869586958695880F5D
:10082000282F220F220F820FF92FF81B8F2F809372
:10083000D0008091D300863050F08091D300883072
:1008400030F48091C00080648093C00005C0809126
:10085000C0008F7B8093C0008091D0008093800087
:100860008091D100809381008091D300882F90E007
:100870004E962AE030E0B9010E94C71B80938200A7
:100880008091D300882F90E04E962AE030E0B901A5
:100890000E94C71BCB0180938300000086E390E099
:1008A000FC018081882F90E080749927892BB1F317
:1008B00086E390E0FC018081882384F786E390E062
:1008C000FC018081882F90E080729927892B31F379
:1008D0000CC20E94B20086E390E0FC018081882F68
:1008E00090E080729927892B09F0B9C086E390E0E7
:1008F000FC01808188230CF0B2C086E390E0FC010B
:100900008081882F90E080749927892B09F4A7C0F3
:1009100069E170E080E090E00E94820086E390E070
:10092000FC018081882F90E080729927892B09F043
:1009300096C086E390E0FC01808188230CF08FC094
:1009400086E390E0FC018081882F90E080749927F5
:10095000892B09F484C08091D3008F5F8093D300EA
:100960008091D300813110F01092D3008091D30098
:10097000863050F08091D300883030F48091C000F0
:1009800080648093C00005C08091C0008F7B8093FD
:10099000C0001092C2008091D300082F10E0809117
:1009A000D3000E946700282FC80188579F4FFC0181
:1009B00020838091D300882F90E088579F4FFC01BF
:1009C00090818DEC989F812D112486958695869532
:1009D0008093D1008091D300882F90E088579F4F5B
:1009E000FC0190818DEC989F812D11248695869530
:1009F0008695880F282F220F220F820FF92FF81BC0
:100A00008F2F8093D0008091D000809380008091C0
:100A1000D100809381008091D300882F90E04E9682
:100A20002AE030E0B9010E94C71B809382008091C8
:100A3000D300882F90E04E962AE030E0B9010E9462
:100A4000C71BCB0180938300000086E390E0FC018C
:100A50008081882F90E080729927892BB1F386E3FB
:100A600090E0FC018081882F90E080729927892B8B
:100A700009F4B6C086E390E0FC01808188230CF481
:100A8000AFC086E390E0FC018081882F90E0807405
:100A90009927892B09F4A4C069E170E080E090E017
:100AA0000E94820086E390E0FC018081882F90E024
:100AB00080729927892B09F493C086E390E0FC01AA
:100AC000808188230CF48CC086E390E0FC01808157
:100AD000882F90E080749927892B09F481C0809138
:100AE000D30081508093D3008091D300813118F0DE
:100AF00080E18093D3008091D300863050F08091C4
:100B0000D300883030F48091C00080648093C000AE
:100B100005C08091C0008F7B8093C0001092C200FE
:100B20008091D300082F10E08091D3000E946700CD
:100B3000282FC80188579F4FFC0120838091D30044
:100B4000882F90E088579F4FFC0190818DEC989FF3
:100B5000812D11248695869586958093D10080916C
:100B6000D300882F90E088579F4FFC0190818DEC37
:100B7000989F812D1124869586958695880F282F1C
:100B8000220F220F820FF92FF81B8F2F8093D00096
:100B90008091D000809380008091D100809381006B
:100BA0008091D300882F90E04E962AE030E0B90182
:100BB0000E94C71B809382008091D300882F90E011
:100BC0004E962AE030E0B9010E94C71BCB0180930A
:100BD0008300000086E390E0FC0180818823D4F745
:100BE00086E390E0FC018081882F90E08072992755
:100BF000892B09F43FC086E390E0FC0180818823C3
:100C0000CCF586E390E0FC018081882F90E0807431
:100C10009927892B79F569E170E080E090E00E94E6
:100C2000820086E390E0FC018081882F90E0807252
:100C30009927892BF9F086E390E0FC0180818823D5
:100C4000CCF486E390E0FC018081882F90E08074F2
:100C50009927892B79F41092C2000E94F8000000B5
:100C600086E390E0FC018081882F90E080749927D2
:100C7000892BB1F386E390E0FC018081882F90E01E
:100C800080749927892B89F586E390E0FC018081A7
:100C9000882F90E080729927892B39F586E390E0C0
:100CA000FC01808188230CF160EE71E080E090E02F
:100CB0000E94820086E390E0FC018081882F90E012
:100CC00080749927892B89F486E390E0FC01808168
:100CD000882F90E080729927892B39F486E390E081
:100CE000FC01808188230CF005C08091C2008E3108
:100CF00008F4EFCD2C960FB6F894DEBF0FBECDBF33
:100D0000DF91CF911F910F910895CF93DF93CDB7CE
:100D1000DEB786E390E0FC018081882F90E080724E
:100D20009927892B09F586E390E0FC0180818823CF
:100D3000DCF063E270E080E090E00E94820086E3F5
:100D400090E0FC018081882F90E080729927892BA8
:100D500059F486E390E0FC01808188232CF081E047
:100D60008093DA001092D500DF91CF910895CF9350
:100D7000DF93CDB7DEB78091C00081608093C00063
:100D80008091C10088608093C1001092D80088E3F0
:100D900090E028E330E0F90120812B7FFC012083E3
:100DA000809165008093830080916400809382002D
:100DB0008091630080938100809162008093800025
:100DC00080918300880F982F990F990F980F809129
:100DD0008200890F8093D20010928F00000086E37A
:100DE00090E0FC018081882F90E080749927892B06
:100DF000B1F363E270E080E090E00E948200DCC02A
:100E0000A9C00E94B20086E390E0FC018081882F97
:100E100090E080729927892B09F04CC069E170E05D
:100E200080E090E00E94820086E390E0FC018081F7
:100E3000882F90E080729927892BE1F51092C200EB
:100E40008091D2008F5F8093D2008091D200883150
:100E500010F01092D2009091D2008DEC989F812DCD
:100E60001124869586958695809383009091D20073
:100E70008DEC989F812D1124869586958695880FF7
:100E8000282F220F220F820FF92FF81B8F2F80930C
:100E90008200000086E390E0FC018081882F90E0D2
:100EA00080729927892B31F486E390E0FC018081E0
:100EB000882384F386E390E0FC01808188230CF48E
:100EC00049C069E170E080E090E00E94820086E322
:100ED00090E0FC0180818823ECF11092C2008091A7
:100EE000D20081508093D2008091D200893118F0D5
:100EF00087E18093D2009091D2008DEC989F812D54
:100F00001124869586958695809383009091D200D2
:100F10008DEC989F812D1124869586958695880F56
:100F2000282F220F220F820FF92FF81B8F2F80936B
:100F30008200000086E390E0FC018081882354F069
:100F400086E390E0FC018081882F90E080729927F1
:100F5000892B81F786E390E0FC018081882F90E067
:100F600080749927892BA9F086E390E0FC018081A9
:100F7000882F90E080729927892B31F486E390E0E6
:100F8000FC01808188232CF48091C2008E3108F40A
:100F900038CF8091C2008E3138F463E270E080E097
:100FA00090E00E94820008C08091C0008860809319
:100FB000C00081E08093DA0086E390E0FC0180814C
:100FC000882F90E080749927892BA9F086E390E020
:100FD000FC018081882F90E080729927892B31F461
:100FE00086E390E0FC01808188232CF48091C2008C
:100FF0008E3108F405CF8091820080936400809147
:101000008300809365008091DA00882309F01AC17B
:101010008091C100877F8093C1008091C100806171
:101020008093C10080916300809381008091620071
:101030008093800080916300880F982F990F990FFB
:10104000980F80916200890F8093D200000086E3A0
:1010500090E0FC018081882F90E080749927892B93
:10106000B1F363E270E080E090E00E948200BFC0D4
:1010700099C00E94B20086E390E0FC018081882F35
:1010800090E080729927892B09F046C069E170E0F1
:1010900080E090E00E94820086E390E0FC01808185
:1010A000882F90E080729927892BB1F51092C200A9
:1010B0008091D2008F5F8093D2008091D2008C33D8
:1010C00011F41092D2009091D2008DEC989F812D56
:1010D0001124869586958695809381009091D20003
:1010E0008DEC989F812D1124869586958695880F85
:1010F000282F220F220F820FF92FF81B8F2F80939A
:101100008000000086E390E0FC018081882F90E061
:1011100080729927892BB1F386E390E0FC018081EE
:1011200088230CF43FC069E170E080E090E00E9409
:10113000820086E390E0FC01808188239CF110927C
:10114000C2008091D20081508093D2008091D20061
:101150008F3F19F48BE38093D2009091D2008DECF5
:10116000989F812D11248695869586958093810080
:101170009091D2008DEC989F812D112486958695B3
:101180008695880F282F220F220F820FF92FF81B28
:101190008F2F80938000000086E390E0FC01808127
:1011A0008823D4F786E390E0FC018081882F90E0CB
:1011B00080749927892BA9F086E390E0FC01808157
:1011C000882F90E080729927892B31F486E390E094
:1011D000FC01808188232CF48091C2008E3108F4B8
:1011E00048CF63E270E080E090E00E94820086E3F6
:1011F00090E0FC018081882F90E080749927892BF2
:10120000A9F086E390E0FC018081882F90E0807255
:101210009927892B31F486E390E0FC0180818823B3
:101220002CF48091C2008E3108F422CF809181008D
:10123000809363008091800080936200109261002F
:1012400010926000DF91CF910895CF93DF93CDB7D7
:10125000DEB71092D80088E390E028E330E0F9018F
:10126000308124E02327FC01208319C061E070E075
:1012700080E090E00E9482008091DB009091DC0091
:1012800001969093DC008093DB008091DB009091CD
:10129000DC00853F914018F00E94B7060AC086E343
:1012A00090E0FC018081882F90E080749927892B41
:1012B000E9F21092DC001092DB008091C000882FD0
:1012C00090E081709927892B09F06FC288E390E044
:1012D00028E330E0F90120812460FC012083809123
:1012E000C00082608093C0008091C10088608093BC
:1012F000C100809187008093830080918600809355
:101300008200809185008093810080918400809389
:10131000800080918300880F982F990F990F980F64
:1013200080918200890F8093D20063E270E080E0B8
:1013300090E00E948200DCC0A9C00E94B20086E357
:1013400090E0FC018081882F90E080729927892BA2
:1013500009F04CC069E170E080E090E00E948200FA
:1013600086E390E0FC018081882F90E080729927CD
:10137000892BE1F51092C2008091D2008F5F80939B
:10138000D2008091D200883110F01092D20090915A
:10139000D2008DEC989F812D112486958695869597
:1013A000809383009091D2008DEC989F812D112421
:1013B000869586958695880F282F220F220F820FFB
:1013C000F92FF81B8F2F80938200000086E390E0B6
:1013D000FC018081882F90E080729927892B31F45D
:1013E00086E390E0FC018081882384F386E390E02B
:1013F000FC01808188230CF449C069E170E080E041
:1014000090E00E94820086E390E0FC0180818823C6
:10141000ECF11092C2008091D20081508093D200F2
:101420008091D200893118F087E18093D2009091A9
:10143000D2008DEC989F812D1124869586958695F6
:10144000809383009091D2008DEC989F812D112480
:10145000869586958695880F282F220F220F820F5A
:10146000F92FF81B8F2F80938200000086E390E015
:10147000FC018081882354F086E390E0FC018081A8
:10148000882F90E080729927892B81F786E390E07E
:10149000FC018081882F90E080749927892BA9F026
:1014A00086E390E0FC018081882F90E0807299278C
:1014B000892B31F486E390E0FC01808188232CF4B1
:1014C0008091C2008E3108F438CF8091C2008E31F5
:1014D00038F463E270E080E090E00E94820008C08F
:1014E0008091C00088608093C00081E08093DA0022
:1014F00086E390E0FC018081882F90E0807499273A
:10150000892BA9F086E390E0FC018081882F90E090
:1015100080729927892B31F486E390E0FC01808169
:1015200088232CF48091C2008E3108F405CF1092EC
:10153000C200809183008093870080918200809315
:1015400086000E9485068091DA00882309F02DC16B
:101550008091C100877F8093C1008091C10080612C
:101560008093C100809185008093810080918400E8
:101570008093800080918100880F982F990F990F98
:10158000980F80918000890F8093D200000086E33D
:1015900090E0FC018081882F90E080749927892B4E
:1015A000B1F363E270E080E090E00E948200CFC07F
:1015B000A9C00E94B20086E390E0FC018081882FE0
:1015C00090E080729927892B09F04CC069E170E0A6
:1015D00080E090E00E94820086E390E0FC01808140
:1015E000882F90E080729927892BE1F51092C20034
:1015F0008091D2008F5F8093D2008091D2008C3393
:1016000011F41092D2009091D2008DEC989F812D10
:101610001124869586958695809381009091D200BD
:101620008DEC989F812D1124869586958695880F3F
:10163000282F220F220F820FF92FF81B8F2F809354
:101640008000000086E390E0FC018081882F90E01C
:1016500080729927892B31F486E390E0FC01808128
:10166000882384F386E390E0FC01808188230CF4D6
:1016700049C069E170E080E090E00E94820086E36A
:1016800090E0FC0180818823ECF11092C2008091EF
:10169000D20081508093D2008091D2008F3F19F404
:1016A0008BE38093D2009091D2008DEC989F812D96
:1016B0001124869586958695809381009091D2001D
:1016C0008DEC989F812D1124869586958695880F9F
:1016D000282F220F220F820FF92FF81B8F2F8093B4
:1016E0008000000086E390E0FC018081882354F0B4
:1016F00086E390E0FC018081882F90E0807299273A
:10170000892B81F786E390E0FC018081882F90E0AF
:1017100080749927892BA9F086E390E0FC018081F1
:10172000882F90E080729927892B31F486E390E02E
:10173000FC01808188232CF48091C2008E3108F452
:1017400038CF63E270E080E090E00E94820086E3A0
:1017500090E0FC018081882F90E080749927892B8C
:10176000A9F086E390E0FC018081882F90E08072F0
:101770009927892B31F486E390E0FC01808188234E
:101780002CF48091C2008E3108F412CF1092C20066
:1017900081E08093D50080918100809385008091C5
:1017A0008000809384000E9485061092DA00809168
:1017B000C0008E7F8093C0008091C100877F80939E
:1017C000C1008091C1008F7E8093C1008091C000D4
:1017D0008D7F8093C0008091C000877F8093C00080
:1017E0001092C200DF91CF910895CF93DF93CDB7D0
:1017F000DEB780918800882F90E08230910509F44F
:1018000059C0833091052CF4009759F0019799F055
:1018100082C08330910509F457C0049709F467C06A
:101820007AC088E390E028E330E0F9012081256068
:10183000FC01208370C088E390E0FC018081882F48
:1018400090E09C012470332788E390E0FC018081C4
:10185000882F90E081709927822B932B892BA9F0F8
:1018600088E390E0FC018081882F90E09C01247047
:10187000332788E390E0FC018081882F90E081701D
:101880009927822B932B059759F488E390E028E35E
:1018900030E0F901308125E02327FC0120833BC0A3
:1018A00088E390E028E330E0F90120812A7FFC0101
:1018B000208331C088E390E028E330E0F901208103
:1018C0002A7FFC01208327C088E390E028E330E0F2
:1018D000F90120812B7FFC01208388E390E028E33D
:1018E00030E0F90120812160FC01208314C088E3ED
:1018F00090E028E330E0F90120812B7FFC01208378
:1019000088E390E028E330E0F901308121E02327EB
:10191000FC0120830000DF91CF9108951F920F9268
:1019200000905F000F9211242F933F934F935F938A
:101930006F937F938F939F93AF93BF93EF93FF9397
:10194000CF93DF93CDB7DEB785E590E0FC01108241
:1019500088E290E020E4FC0120838091E0009091F7
:10196000E10001969093E1008093E0008091D9001E
:10197000882309F069C08091C000882F90E08270B0
:101980009927892B89F48091C000882F90E081707D
:101990009927892B49F48091C000882F90E08470AA
:1019A0009927892B09F44BC08091C2008F5F8093E7
:1019B000C2008091C000882F90E084709927892B05
:1019C00011F00E94F50B8091C100882F90E0887083
:1019D0009927892B41F48091C000882F90E0847072
:1019E0009927892B69F08091E0009091E10002979E
:1019F00021F48CE08093CF0003C08FE08093CF0070
:101A00008091C100882F90E080719927892B41F443
:101A10008091C000882F90E080729927892B71F007
:101A20008091E0009091E100029721F483E080939F
:101A3000CF0004C08FE08093CF0003C002C00E949B
:101A4000F50B81E08093D8008091E0009091E10057
:101A5000029709F0A1C01092D800809160008F5FBA
:101A600080936000809160008A3009F053C010922A
:101A70006000809161008F5F8093610080916100C0
:101A8000863009F047C010926100809162008F5F3C
:101A900080936200809162008A30E1F510926200CA
:101AA000809163008F5F8093630080916300863034
:101AB00089F510926300809164008F5F80936400C9
:101AC00080916500882359F4809164008A3039F44C
:101AD00010926400809165008F5F80936500809113
:101AE0006500813059F4809164008A3039F4109295
:101AF0006400809165008F5F809365008091650030
:101B0000823041F480916400843021F410926400AA
:101B100010926500809160008530D1F58091610060
:101B20008230B1F580916200823091F5809163003E
:101B3000853071F580916400823051F580916500A7
:101B4000882331F58091930085508093CB0080915C
:101B5000CB008823B4F49091C10082E08927809360
:101B6000C1008091C100882F90E082709927892B55
:101B700079F0809160009091CB00890F8093600094
:101B800007C0809160009091CB00890F8093600026
:101B90001092E1001092E000809192008130D1F427
:101BA000809160008823B1F480916100882391F4D2
:101BB00080916200882371F480916300882351F43E
:101BC0008091E0009091E100019721F481E0809301
:101BD000D70002C01092D700809198008130D9F4CC
:101BE000809160008823B9F480916100882399F482
:101BF00080916200882379F480916300882359F4EE
:101C00008091E0009091E100892B29F48091C1003E
:101C100081608093C1008091D5008130E1F4909182
:101C20008400809162009817B1F4909185008091B2
:101C30006300981781F49091860080916400981752
:101C400051F49091870080916500981721F481E00C
:101C50008093D60002C01092D6008091D9008130C6
:101C600009F0A9C088E290E0FC018081882F90E013
:101C700080729927892B09F09EC08EE18093C20063
:101C80001092D9001092EA001092EB001092EC0032
:101C90001092ED001092E3001092E2008AE090E0D2
:101CA00090937500809374008091C0008F7E809324
:101CB000C00086E290E02FE8FC01208387E290E0FC
:101CC00027E0FC01208381E390E02FEFFC012083DB
:101CD00082E390E0FC0110828AE390E02FE3FC01B4
:101CE00020838BE390E0FC01108287E390E024E006
:101CF000FC01208388E390E02FEFFC01208384E344
:101D000090E02FEFFC01208385E390E0FC0110823E
:101D100088E390E028E330E0F90120812460FC01B1
:101D2000208388E390E028E330E0F90120812062FD
:101D3000FC01208388E390E028E330E0F901208172
:101D40002064FC01208388E390E028E330E0F9017F
:101D500020812068FC01208389E590E021E4FC01DA
:101D600020838FE08093CF0082E08093DD0082E0CB
:101D70008093CC0086E08093CD0088E08093CE00F5
:101D80008FE490E022E8FC0120838EE490E029E1DA
:101D9000FC01208386E490E02AEF30E0FC013183EF
:101DA000208383E590E024E0FC01208382E590E03D
:101DB0002FEFFC012083DF91CF91FF91EF91BF9135
:101DC000AF919F918F917F916F915F914F913F91D3
:101DD0002F910F9000925F000F901F9018951F9207
:101DE0000F9200905F000F9211242F933F934F9317
:101DF0005F936F937F938F939F93AF93BF93EF9373
:101E0000FF93CF93DF93CDB7DEB782E590E02FEF5E
:101E1000FC01208380916C008F5F80936C00809127
:101E20009600813009F0EFC08091C7009091C80002
:101E300001969093C8008093C70086E390E0FC0170
:101E40008081882F90E081709927892B31F58091CE
:101E5000C900882329F41092C60081E08093C9004C
:101E60001092C8001092C7008091C6008F5F8093C7
:101E7000C6008091C600813481F41092C600809122
:101E8000C5008F5F8093C5008091CA00882F90E0C5
:101E9000880F991F81608093CA008091C5008823B4
:101EA00039F186E390E0FC018081882F90E0817019
:101EB0009927892BE9F08091C900813021F4109293
:101EC000C6001092C9008091C6008F5F8093C60043
:101ED0008091C600813461F41092C6008091C500E3
:101EE0008F5F8093C5008091CA00880F8093CA00DD
:101EF0008091C500883009F05FC01092C500109233
:101F0000C6008091CA00882F90E0817F9927813A8E
:101F1000910509F051C08091CA00882F90E082702D
:101F20009927892B51F088E390E028E330E0F9010C
:101F300020812F7BFC01208309C088E390E028E307
:101F400030E0F90120812064FC0120838091CA00E7
:101F5000882F90E084709927892B51F088E390E0D6
:101F600028E330E0F90120812F7DFC01208309C0A6
:101F700088E390E028E330E0F90120812062FC0151
:101F800020838091CA00882F90E088709927892B40
:101F900051F088E390E028E330E0F90120812F77C9
:101FA000FC01208309C088E390E028E330E0F901D8
:101FB00020812068FC0120838091C7009091C80097
:101FC0008D3A9D4048F188E390E028E330E0F90144
:101FD00020812064FC01208388E390E028E330E046
:101FE000F90120812062FC01208388E390E028E34E
:101FF00030E0F90120812068FC0120831092C800A4
:102000001092C70009C088E390E028E330E0F901AE
:102010002081206EFC01208380916C00873309F0C1
:1020200096C280917300813009F091C210926C00C9
:102030008091DD008F5F8093DD009091DD008091C5
:10204000CD00981720F08091CC008093DD0086E2CF
:1020500090E026E230E0F90120812064FC01208339
:1020600086E390E0FC018081882F90E080749927BE
:10207000892B21F480918C008130C1F086E390E0BF
:10208000FC018081882F90E080729927892B21F4B0
:1020900080918C00813051F086E390E0FC018081DA
:1020A00088235CF180918C00813039F58091C000EB
:1020B00080688093C00080917600823378F48BE34F
:1020C00090E02BE330E0F90120812062FC012083C5
:1020D000809176008F5F8093760024C08BE390E040
:1020E0002BE330E0F90120812F7DFC0120838091DA
:1020F000C0008F778093C00015C08091C0008F779B
:102100008093C00080917600823360F48BE390E08E
:102110002BE330E0F90120812F7DFC0120838FEF3C
:102120008093760086E390E0FC018081882F90E028
:1021300080749927892B91F086E390E0FC018081DF
:10214000882F90E080729927892B41F086E390E0F8
:10215000FC018081882314F4109276008091C100E4
:10216000882F90E081709927892B09F474C08091A1
:10217000C4008F5F8093C4008091C400823309F053
:102180006AC01092C400809166008F5F80936600E1
:10219000809166008A3039F48091C3008F5F80930C
:1021A000C30010926600809167008F5F8093670084
:1021B000809167008A3011F4109267008091680066
:1021C0008F5F80936800809168008A3011F41092CC
:1021D0006800809169008F5F809369008091690039
:1021E0008A3011F41092690080916A008F5F8093A9
:1021F0006A0080916A008A3011F410926A0080911E
:102200006B008F5F80936B0080916B008A3011F4BC
:1022100010926B008091C3008C30E9F48091C10072
:102220008E7F8093C10060E08DE00E944900109293
:10223000C30081E08093660082E08093670083E0C2
:102240008093680084E08093690085E080936A0051
:1022500086E080936B008091D600813041F48091BC
:10226000D500813021F48091D800813029F080910F
:10227000D700813009F048C08091F6008F5F8093CD
:10228000F6008091F600823350F48BE390E02BE36C
:1022900030E0F90120812062FC01208334C080916C
:1022A000F600843650F48BE390E02BE330E0F90144
:1022B00020812F7DFC01208326C08091F600863985
:1022C00050F48BE390E02BE330E0F90120812062B1
:1022D000FC01208318C08091F600883C60F48BE3F9
:1022E00090E02BE330E0F90120812F7DFC01208379
:1022F0001092D70008C08091F600893C20F088EC4D
:102300008093F60003C002C01092F6008091C000D6
:10231000882F90E082709927892B09F0B9C08091AD
:10232000C000882F90E081709927892B09F0B0C0F8
:102330008091C000882F90E084709927892B09F044
:10234000A7C08091C100882F90E081709927892BC8
:1023500089F08091DD00882F90E02091DD00222F10
:1023600030E02A593F4FF901208182589F4FFC01EC
:1023700020838EC08091DD00882F90E02091DD00C9
:10238000222F30E0205A3F4FF901208188589F4F7B
:10239000FC01208380916500880F982F990F990F79
:1023A000980F80916400890F8093D20080918900FA
:1023B0008823A1F58091D2008D3018F18091D20050
:1023C0008C508093D2009091D2008DEC989F812DFB
:1023D000112486958695869580937D009091D200F4
:1023E0008DEC989F812D1124869586958695880F72
:1023F000282F220F220F820FF92FF81B8F2F809387
:102400007C008091D200882349F48CE08093D20034
:1024100081E080937D0082E080937C0080918A003F
:10242000882361F48091D2008A3020F48EE080937A
:10243000CF0007C08FE08093CF0003C08FE0809370
:10244000CF008091C100882F90E080729927892B5E
:1024500059F08091610080937B00809160008093AF
:102460007A008CE08093CF0080919700882381F4DC
:102470008091DD00882F90E02091DD00222F30E058
:1024800028583F4FF901208182589F4FFC0120833B
:1024900085E390E025E330E0F9012081207CFC0118
:1024A00020838BE390E02BE330E0F9012081207E54
:1024B000FC01208382E390E022E330E0F9012081F7
:1024C000207BFC0120838091CE0086958093CE00F6
:1024D0008091CE00882319F488E08093CE0085E3B4
:1024E00090E025E330E0F9012081322F3F634091F5
:1024F000CE002091CF002423206C2323FC012083D5
:102500008091DD00882F90E082589F4FFC01208150
:102510008091DD00882F90E088589F4FFC018081DA
:10252000281781F08091C10084608093C100809160
:10253000DD00882F90E088589F4FFC0180818093B8
:10254000D40005C08091C1008B7F8093C100809131
:10255000C000882F90E082709927892B09F09DC1D7
:102560008091C000882F90E081709927892B09F015
:1025700094C18091C000882F90E084709927892BA6
:1025800009F08BC18091C100882F90E0817099275C
:10259000892B09F082C18091C100882F90E084705E
:1025A0009927892B09F449C180916C00882309F08F
:1025B00054C08BE390E02BE330E0F901408120919F
:1025C000DD00222F30E022583F4FF9012081222FD9
:1025D00030E02B543F4FF9012081242BFC01208354
:1025E00082E390E022E330E0F90140812091DD00B8
:1025F000222F30E022583F4FF9012081222F30E076
:1026000026553F4FF9012081242BFC0120838BE3C9
:1026100090E02BE330E0F9012081422F2091D4009B
:10262000222F30E02B543F4FF901208120952423A5
:10263000FC01208382E390E022E330E0F901208175
:10264000422F2091D400222F30E026553F4FF90130
:10265000208120952423FC0120838091DD00882F98
:1026600090E083599F4FFC01908180916C009817F6
:1026700009F054C08BE390E02BE330E0F9012081B6
:10268000422F2091DD00222F30E022583F4FF901E8
:102690002081222F30E02B543F4FF90120812095DB
:1026A0002423FC01208382E390E022E330E0F9015F
:1026B0002081422F2091DD00222F30E022583F4F11
:1026C000F9012081222F30E026553F4FF90120816A
:1026D00020952423FC0120838BE390E02BE330E062
:1026E000F90140812091D400222F30E02B543F4F3C
:1026F000F9012081242BFC01208382E390E022E376
:1027000030E0F90140812091D400222F30E026559D
:102710003F4FF9012081242BFC01208380916C0024
:10272000863309F0B9C08BE390E02BE330E0F90188
:102730002081422F2091DD00222F30E022583F4F90
:10274000F9012081222F30E02B543F4FF9012081E5
:1027500020952423FC01208382E390E022E330E0F3
:10276000F9012081422F2091DD00222F30E02258F4
:102770003F4FF9012081222F30E026553F4FF901CC
:10278000208120952423FC0120838BE390E02BE320
:1027900030E0F9012081422F2091D400222F30E037
:1027A0002B543F4FF901208120952423FC012083E5
:1027B00082E390E022E330E0F9012081422F209172
:1027C000D400222F30E026553F4FF901208120957B
:1027D0002423FC0120838091DD00882F90E09C0160
:1027E00023593F4FF9012081215083599F4FFC010C
:1027F00020838091DD00882F90E083599F4FFC015A
:102800008081882309F048C08091DD00882F90E006
:102810002091D40082589F4FFC0120838091DD00DD
:10282000882F90E083599F4F22E3FC012083809101
:10283000C1008B7F8093C1005EC08BE390E02BE3EF
:1028400030E0F90140812091DD00222F30E0225854
:102850003F4FF9012081222F30E02B543F4FF901E7
:102860002081242BFC01208382E390E022E330E0EE
:10287000F90140812091DD00222F30E022583F4FA6
:10288000F9012081222F30E026553F4FF9012081A8
:10289000242BFC0120832FC02EC08BE390E02BE380
:1028A00030E0F90140812091DD00222F30E02258F4
:1028B0003F4FF9012081222F30E02B543F4FF90187
:1028C0002081242BFC01208382E390E022E330E08E
:1028D000F90140812091DD00222F30E022583F4F46
:1028E000F9012081222F30E026553F4FF901208148
:1028F000242BFC012083DF91CF91FF91EF91BF91B9
:10290000AF919F918F917F916F915F914F913F9187
:102910002F910F9000925F000F901F9018951F92BB
:102920000F9200905F000F9211241F932F933F93FB
:102930004F935F936F937F938F939F93AF93BF93C7
:10294000EF93FF93CF93DF93CDB7DEB786E290E0AE
:1029500026E230E0F9012081277FFC01208387E215
:1029600090E0FC018081882F90E08630910521F075
:10297000079709F44CC117C284E290E0FC01208162
:1029800031818091DE009091DF002817390760F0D7
:1029900082E890E09093E3008093E2008FE990E07A
:1029A00090937500809374002091DE003091DF00D9
:1029B00084E290E0FC0180819181A901481B590BC0
:1029C000CA019093E5008093E4008091E400909127
:1029D000E5009C01990F440B550B8091E20090910A
:1029E000E300CC01A0E0B0E0BC01CD010E94B71B28
:1029F000DC01CB018093E6009093E700A093E80010
:102A0000B093E9008091E6009091E700A091E80082
:102A1000B091E900BB2324F481509C4FAF4FBF4FCE
:102A2000072E7AE0B595A795979587957A95D1F772
:102A3000702D8093EE009093EF00A093F000B09380
:102A4000F1008091E4009091E5009C01990F440B06
:102A5000550B8091740090917500CC01A0E0B0E01E
:102A6000BC01CD010E94B71BDC01CB018093E600C5
:102A70009093E700A093E800B093E9008091E6000E
:102A80009091E700A091E800B091E900BB2324F405
:102A900081509E4FAF4FBF4F072E79E0B595A79558
:102AA000979587957A95D1F7702D8093E60090934E
:102AB000E700A093E800B093E9002091EA0030918C
:102AC000EB004091EC005091ED008091E600909178
:102AD000E700A091E800B091E900820F931FA41FC6
:102AE000B51F8093EA009093EB00A093EC00B093A5
:102AF000ED008091EA009091EB00A091EC00B09184
:102B0000ED0089339440A105B1056CF088E394E0B1
:102B1000A0E0B0E08093EA009093EB00A093EC007B
:102B2000B093ED0019C08091EA009091EB00A09164
:102B3000EC00B091ED00883C9B4FAF4FBF4F64F469
:102B400088EC9BEFAFEFBFEF8093EA009093EB0030
:102B5000A093EC00B093ED002091EE003091EF00D7
:102B60004091F0005091F1008091EA009091EB00CB
:102B7000A091EC00B091ED00820F931FA41FB51F30
:102B80008093F2009093F300A093F400B093F500CB
:102B90008091F2009091F300A091F400B091F500C3
:102BA000BB234CF41092F2001092F3001092F40048
:102BB0001092F50019C08091F2009091F300A0915D
:102BC000F400B091F5008C3E9105A105B10564F0CB
:102BD0008BEE90E0A0E0B0E08093F2009093F300E1
:102BE000A093F400B093F5002AE430E08091F20065
:102BF0009091F300A091F400B091F500F901918358
:102C0000808387E290E027E0FC012083CCC08091A4
:102C1000C100882F90E081709927892B39F088E5D1
:102C200092E09093DF008093DE00B7C084E290E0F2
:102C3000FC012081318180919000482F50E062E3B7
:102C4000649FC001659F900D1124AC014C505E4FF4
:102C500080919100882F90E0880F991FBC01660F2A
:102C6000771F660F771F860F971F840F951F2817F2
:102C70003907C8F08091C000882F90E084709927B0
:102C8000892B89F480918E00282F30E04DE0429FFF
:102C9000C001439F900D112481569E4F9093DF00F9
:102CA0008093DE007AC08091C000882F90E080740D
:102CB0009927892B89F080918E00282F30E04DE0F4
:102CC000429FC001439F900D112481569E4F9093C7
:102CD000DF008093DE0061C084E290E0FC0180812F
:102CE000918120919000422F50E062E3649F900117
:102CF000659F300D1124A9014C505E4F2091910029
:102D0000622F70E0E6EF1E2F16039001179F300D23
:102D10001124240F351F8217930700F58091C000FE
:102D2000882F90E084709927892BC1F480918D00C1
:102D3000882F90E0880F991F9C01220F331F220FCC
:102D4000331F220F331FA901481B590BCA0186519B
:102D50009E4F9093DF008093DE001FC08091C000E3
:102D6000882F90E084709927892BB9F080918D008D
:102D7000882F90E0880F991F9C01220F331F220F8C
:102D8000331F220F331FF901E81BF90BCF018651C6
:102D90009E4F9093DF008093DE0087E290E026E074
:102DA000FC012083000086E290E026E230E0F90199
:102DB00020812860FC012083DF91CF91FF91EF916A
:102DC000BF91AF919F918F917F916F915F914F9143
:102DD0003F912F911F910F9000925F000F901F90D5
:102DE00018950F931F93CF93DF93CDB7DEB781E094
:102DF0008093AA001092AB001092AC001092AD002C
:102E000084E08093AE0080E48093AF0088E08093FC
:102E1000B0001092B1001092B20082E08093B30033
:102E20001092B4001092B50080E18093B60088E063
:102E30008093B70084E08093B8001092B90010929C
:102E4000BA001092BB0081E08093BC0082E08093C6
:102E5000BD001092BE001092BF0081E390E02FEF02
:102E6000FC01208382E390E0FC0110828AE390E081
:102E70002FE3FC0120838BE390E0FC01108287E3C9
:102E800090E024E0FC01208388E390E02FEFFC0138
:102E9000208384E390E02FEFFC01208385E390E022
:102EA000FC01108281E08093990081E080939A0078
:102EB00081E080939B0081E080939C0010929D00B4
:102EC00085E080939E0085E080939F001092A00093
:102ED00085E08093A10083E08093A2001092A3007C
:102EE00087E08093A40081E08093A5001092A60063
:102EF0001092A70081E08093A8001092A90088E3B7
:102F000090E028E330E0F90120812062FC01208379
:102F100088E390E028E330E0F90120812068FC019B
:102F2000208388E390E028E330E0F90120812064E9
:102F3000FC0120838FE490E022E8FC0120838EE4F2
:102F400090E029E1FC01208386E490E02AEF30E064
:102F5000FC013183208388E290E020E4FC0120839F
:102F600087E290E027E0FC01208386E290E02FE8F2
:102F7000FC01208383E590E024E0FC01208382E5CE
:102F800090E02FEFFC01208385E490E029E6FC012E
:102F9000208382E490E028E0FC01208385E490E037
:102FA00024E0FC01208384E490E0FC011082109274
:102FB000DD003AC08091DD00082F10E08091DD0037
:102FC0000E946700282FC80188579F4FFC0120836B
:102FD0008091DD00882F90E088579F4FFC01808111
:102FE0008B30E8F08091DD00882F90E02091DD00AB
:102FF000222F30E027563F4FF901208188579F4FFD
:10300000FC0120838091DD00882F90E088579F4F3E
:10301000FC0190818091DD00692F0E944900809120
:10302000DD008F5F8093DD008091DD00813110F243
:103030008FE08093CF0082E08093DD0082E0809378
:10304000CC0086E08093CD0088E08093CE0089E5B7
:1030500090E021E4FC01208388E390E028E330E065
:10306000F90120812460FC01208380918B00813054
:1030700021F481E08093D50002C01092D500109217
:10308000E3001092E2008AE090E090937500809354
:1030900074008FE590E020E8FC012083809194008B
:1030A000813029F48091C10081608093C1000E9429
:1030B000B20088E290E0FC018081882F90E080726D
:1030C0009927892B09F052C38091C100882F90E085
:1030D00081709927892B09F475C086E390E0FC0183
:1030E0008081882F90E080749927892B89F086E36E
:1030F00090E0FC018081882F90E080729927892BD5
:1031000039F086E390E0FC01808188230CF42EC323
:1031100069E170E080E090E00E94820086E390E048
:10312000FC018081882F90E080749927892B89F099
:1031300086E390E0FC018081882F90E080729927DF
:10314000892B39F086E390E0FC01808188230CF420
:103150000DC38091C1008E7F8093C10060E08DE03F
:103160000E9449001092C30081E08093660082E0D3
:103170008093670083E08093680084E08093690017
:1031800085E080936A0086E080936B00000086E310
:1031900090E0FC018081882F90E080749927892B32
:1031A000B1F386E390E0FC018081882384F786E315
:1031B00090E0FC018081882F90E080729927892B14
:1031C00031F3D4C286E390E0FC018081882F90E047
:1031D00080729927892B81F486E390E0FC0180813D
:1031E000882354F086E390E0FC018081882F90E0F2
:1031F00080749927892B51F480917300882309F0FA
:1032000063C08091D600813009F05EC060EE71E04D
:1032100080E090E00E94820086E390E0FC018081E3
:10322000882F90E080729927892B81F486E390E0C3
:10323000FC018081882354F086E390E0FC018081CA
:10324000882F90E080749927892B41F48091730036
:103250008823D1F58091D6008130B1F58FE490E0DC
:10326000FC0110828EE490E0FC01108286E290E086
:10327000FC0110828BE390E0FC01108288E390E077
:103280002EEFFC01208385E390E0FC01108282E3B5
:1032900090E0FC0110821092730060EE71E080E01B
:1032A00090E00E948200000086E390E0FC018081B3
:1032B0008823D4F786E390E0FC018081882F90E09A
:1032C00080729927892B81F380917300882309F0FC
:1032D0009BC086E390E0FC018081882F90E08074A1
:1032E0009927892B89F086E390E0FC018081882F63
:1032F00090E080729927892B39F086E390E0FC01F9
:10330000808188230CF480C069E170E080E090E067
:103310000E94820086E390E0FC018081882F90E08B
:1033200080749927892B89F086E390E0FC018081E5
:10333000882F90E080729927892B39F086E390E0FE
:10334000FC01808188230CF45FC01092EA00109287
:10335000EB001092EC001092ED001092E30010923E
:10336000E2008AE090E09093750080937400809171
:10337000C0008F7E8093C00087E290E027E0FC01D0
:10338000208386E290E02FE8FC01208382E390E036
:10339000FC01108285E390E0FC0110828FE490E054
:1033A00022E8FC0120838EE490E029E1FC012083E7
:1033B00086E490E02AEF30E0FC013183208386E44C
:1033C00090E02AEF30E0FC013183208381E080939C
:1033D0007300000086E390E0FC018081882F90E07C
:1033E00080749927892BB1F386E390E0FC018081FA
:1033F000882384F786E390E0FC018081882F90E0A9
:1034000080729927892B31F38091D600813009F0A1
:103410006DC08091D500813009F068C08091730043
:10342000813009F063C086E390E0FC018081882F41
:1034300090E080749927892B89F086E390E0FC0165
:103440008081882F90E080729927892B39F086E35C
:1034500090E0FC01808188230CF448C069E170E0B1
:1034600080E090E00E94820086E390E0FC01808191
:10347000882F90E080749927892B81F086E390E073
:10348000FC018081882F90E080729927892B31F090
:1034900086E390E0FC01808188236CF01092F600B6
:1034A0008BE390E02BE330E0F90120812A7FFC01DF
:1034B00020831092D500000086E390E0FC0180811B
:1034C000882F90E080749927892BB1F386E390E0F0
:1034D000FC018081882384F786E390E0FC018081F1
:1034E000882F90E080729927892B31F386E390E052
:1034F000FC018081882F90E080749927892B09F046
:1035000062C086E390E0FC01808188230CF05BC000
:1035100086E390E0FC018081882F90E080729927FB
:10352000892B09F450C080917300813009F04BC0A1
:1035300063E270E080E090E00E94820086E390E029
:10354000FC018081882F90E080749927892BD9F520
:1035500086E390E0FC0180818823ACF586E390E06F
:10356000FC018081882F90E080729927892B59F186
:103570001092D5000E9425098FE08093CF0088E348
:1035800090E028E330E0F90120812560FC012083F0
:10359000000086E390E0FC018081882F90E0807439
:1035A0009927892BB1F386E390E0FC018081882F75
:1035B00090E080729927892B61F386E390E0FC010B
:1035C0008081882334F786E390E0FC018081882F96
:1035D00090E080749927892B09F075C086E390E00C
:1035E000FC018081882F90E080729927892B09F057
:1035F0006AC086E390E0FC01808188230CF463C0FC
:1036000080917300813009F05EC060EE71E080E06F
:1036100090E00E94820086E390E0FC018081882F88
:1036200090E080749927892B09F04DC086E390E0E3
:10363000FC018081882F90E080729927892B09F006
:1036400042C086E390E0FC0180818823E4F10E947F
:10365000D0038091C0008B7F8093C0008091C00018
:103660008F7D8093C0008091C0008F7B8093C000CD
:103670001092C2008FE08093CF008091950081303E
:1036800039F48091C10081608093C100109295004F
:10369000000086E390E0FC018081882F90E0807438
:1036A0009927892BB1F386E390E0FC018081882380
:1036B00084F786E390E0FC018081882F90E080729F
:1036C0009927892B31F386E390E0FC0180818823E0
:1036D0000CF43FC086E390E0FC018081882F90E0ED
:1036E00080749927892BA9F186E390E0FC01808101
:1036F000882F90E080729927892B59F1809173006F
:10370000813039F563E270E080E090E00E94820051
:1037100086E390E0FC0180818823D4F086E390E08A
:10372000FC018081882F90E080749927892B81F09B
:1037300086E390E0FC018081882F90E080729927D9
:10374000892B31F08091C10080628093C1000EC04E
:103750000DC08091C100882F90E080729927892B3D
:1037600029F08091C1008F7D8093C100A0CCDB0146
:103770008F939F930E94DB1BBF91AF91A29F800DFF
:10378000911DA39F900DB29F900D1124089597FB5A
:10379000072E16F4009407D077FD09D00E94E61B8F
:1037A00007FC05D03EF4909581959F4F0895709544
:1037B00061957F4F08950E94FA1BA59F900DB49FBD
:1037C000900DA49F800D911D11240895AA1BBB1B71
:1037D00051E107C0AA1FBB1FA617B70710F0A61B11
:1037E000B70B881F991F5A95A9F780959095BC0132
:1037F000CD010895A29FB001B39FC001A39F700D9A
:10380000811D1124911DB29F700D811D1124911DE8
:103810000895E199FECF9FBB8EBBE09A99278DB3A7
:103820000895262FE199FECF9FBB8EBB2DBB0FB60F
:10383000F894E29AE19A0FBE01960895F894FFCFAA
:10384000050509050302010203040506363232327A
:08385000323232013B00FF009F
:00000001FF
