:100000000C942A000C9447000C9447000C94470071
:100010000C94DF0D0C9447000C9447000C9447009F
:100020000C9447000C9459100C9447000C94470012
:100030000C9447000C9447000C949E120C944700BB
:100040000C9447000C9447000C9447000C94470014
:100050000C94470011241FBECFE5D4E0DEBFCDBF16
:1000600010E0A0E6B0E0E2E2F5E302C005900D92F8
:10007000A037B107D9F710E0A0E7B0E001C01D92AA
:10008000AF3DB107E1F70E9411150C948F1A0C9443
:100090000000CF93DF9300D0CDB7DEB789836A83AA
:1000A0008CE390E0FC018081882F90E0827090705A
:1000B0000097B1F78981882F90E0805090406A8145
:1000C0000E94821A0F900F90DF91CF910895CF93E5
:1000D000DF930F92CDB7DEB789838CE390E0FC010C
:1000E0008081882F90E0827090700097B1F78981AD
:1000F000882F90E0805090400E947A1A0F90DF91F4
:10010000CF910895CF93DF9300D000D00F92CDB759
:10011000DEB76A837B838C839D8314C0198204C0FD
:10012000000089818F5F898389818F39C8F38A8133
:100130009B81AC81BD810197A109B1098A839B8311
:10014000AC83BD838A819B81AC81BD810097A10571
:10015000B10521F70F900F900F900F900F90DF9146
:10016000CF910895CF93DF9300D000D00F92CDB7F9
:10017000DEB76A837B838C839D8314C0198204C09D
:10018000000089818F5F898389818733C8F38A81E1
:100190009B81AC81BD810197A109B1098A839B83B1
:1001A000AC83BD838A819B81AC81BD810097A10511
:1001B000B10521F70F900F900F900F900F90DF91E6
:1001C000CF910895CF93DF93CDB7DEB782E090E073
:1001D0009093C3008093C20082E08093AF0086E0DA
:1001E0008093B00088E08093B10088E08093B200F3
:1001F0001092B300DF91CF910895CF93DF93CDB7E5
:10020000DEB71092C3001092C2001092AF0086E0D9
:100210008093B00080E28093B10080E28093B200CE
:100220001092B300DF91CF910895CF93DF93CDB7B4
:10023000DEB785E090E09093C3008093C20085E034
:100240008093AF0086E08093B00081E08093B1009E
:1002500081E08093B2001092B300DF91CF910895B6
:10026000CF93DF93CDB7DEB785E090E09093C300E6
:100270008093C20085E08093AF0086E08093B00059
:1002800081E08093B10081E08093B2001092B300CE
:10029000DF91CF910895CF93DF93CDB7DEB784E0A0
:1002A00090E09093C3008093C20084E08093AF00FD
:1002B00086E08093B00082E08093B10082E080937A
:1002C000B2001092B300DF91CF910895CF93DF93E6
:1002D000CDB7DEB784E090E09093C3008093C20076
:1002E00084E08093AF0086E08093B00082E080934A
:1002F000B10082E08093B2001092B300DF91CF9101
:100300000895CF93DF93CDB7DEB782E090E090936E
:10031000C3008093C20082E08093AF0086E08093A8
:10032000B00088E08093B10088E08093B200109222
:10033000B300DF91CF910895CF93DF93CDB7DEB7B0
:1003400088E290E0FC018081882F90E080729070BC
:100350000097A9F183E590E0FC0110828FE490E022
:10036000FC0110828EE490E0FC01108289E590E0AF
:1003700020E4FC01208386E290E0FC01108288E307
:1003800090E0FC01108285E390E0FC01108282E3A2
:1003900090E0FC0110826BE070E080E090E00E9451
:1003A000820081E08093BE001092C5001092C400CC
:1003B00085E590E020E7FC01208388950000DF912F
:1003C000CF910895CF93DF93CDB7DEB78091AA0088
:1003D00080628093AA00000086E390E0FC018081A7
:1003E000882F90E0807490700097B1F3B5C20E949E
:1003F0009C0186E390E0FC018081882F90E0807270
:100400009070009709F021C186E390E0FC018081A3
:1004100088230CF01AC186E390E0FC018081882FCC
:1004200090E080749070009709F40FC18091810072
:10043000282F30E0C901880F991F880F991F820F5C
:10044000931F909581959F4F845D9E4FAA2797FD9E
:10045000A095BA2FBC01CD010E94820086E390E0F6
:10046000FC018081882F90E080729070009709F0E5
:10047000ECC086E390E0FC01808188230CF0E5C0AD
:1004800086E390E0FC018081882F90E0807490707A
:10049000009709F4DAC08091B800882F90E09C01A1
:1004A00026583F4FF90120812F5F86589F4FFC014E
:1004B00020838091B800882321F08091B800853096
:1004C00060F08091B8008A3041F08091B8008C30A3
:1004D00021F08091B8008D30A9F48091B800882F68
:1004E00090E086589F4FFC018081823008F461C003
:1004F0008091B800882F90E086589F4F21E0FC0142
:10050000208357C08091B8008823A9F48091B80057
:10051000882F90E086589F4FFC018081833008F43B
:1005200048C08091B800882F90E086589F4F22E005
:10053000FC0120833EC08091B8008B3039F580915A
:10054000B800882F90E086589F4FFC0180818A3048
:1005500048F08091B800882F90E086589F4F29E09E
:10056000FC0120838091B800882F90E086589F4F2F
:10057000FC0180818823E9F48091B800882F90E005
:1005800086589F4F21E0FC01208313C08091B80062
:10059000882F90E086589F4FFC0180818B3048F077
:1005A0008091B800882F90E086589F4F2AE0FC0188
:1005B00020831092AC008091B800882F90E086587C
:1005C0009F4FFC0180819AE0692F0E940A1A809354
:1005D000B6008091B800882F90E086589F4FFC01AC
:1005E00080819AE0692F0E940A1A892F8093B500B2
:1005F0008091B500809372008091B6008093730063
:100600008091B800882F90E04E962AE030E0B90142
:100610000E94161A809374008091B800882F90E091
:100620004E962AE030E0B9010E94161A9B01C901DA
:1006300080937500000086E390E0FC018081882FA4
:1006400090E0807290700097B1F386E390E0FC0137
:100650008081882F90E080729070009709F41AC111
:1006600086E390E0FC01808188230CF413C186E3CB
:1006700090E0FC018081882F90E08074907000975A
:1006800009F408C180918100282F30E0C901880F4A
:10069000991F880F991F820F931F909581959F4FE7
:1006A000845D9E4FAA2797FDA095BA2FBC01CD016E
:1006B0000E94820086E390E0FC018081882F90E018
:1006C00080729070009709F4E5C086E390E0FC0129
:1006D000808188230CF4DEC086E390E0FC018081F9
:1006E000882F90E080749070009709F4D3C08091B7
:1006F000B800882F90E09C0126583F4FF9012081D7
:10070000215086589F4FFC0120838091B800882398
:1007100021F08091B800853060F08091B8008A3077
:1007200041F08091B8008C3021F08091B8008D307C
:10073000A1F48091B800882F90E086589F4FFC016B
:100740008081823008F45EC08091B800882F90E0EC
:1007500086589F4FFC01108255C08091B8008823B5
:10076000A1F48091B800882F90E086589F4FFC013B
:100770008081853008F446C08091B800882F90E0D1
:1007800086589F4FFC0110823DC08091B8008B308D
:1007900039F58091B800882F90E086589F4FFC0172
:1007A00080818A3048F08091B800882F90E0865888
:1007B0009F4F29E0FC0120838091B800882F90E0B2
:1007C00086589F4FFC0180818823E1F48091B80016
:1007D000882F90E086589F4F21E0FC01208312C0B3
:1007E0008091B800882F90E086589F4FFC0180814F
:1007F0008B3040F08091B800882F90E086589F4F52
:10080000FC0110821092AC008091B800882F90E01B
:1008100086589F4FFC0180819AE0692F0E940A1A36
:100820008093B6008091B800882F90E086589F4F43
:10083000FC0180819AE0692F0E940A1A892F809317
:10084000B5008091B500809372008091B6008093CE
:1008500073008091B800882F90E04E962AE030E037
:10086000B9010E94161A809374008091B800882FF5
:1008700090E04E962AE030E0B9010E94161A9B01E2
:10088000C90180937500000086E390E0FC0180813F
:100890008823D4F786E390E0FC018081882F90E0E4
:1008A00080729070009709F457C086E390E0FC01D5
:1008B000808188230CF050C086E390E0FC018081A9
:1008C000882F90E080749070009709F045C0809167
:1008D0008100282F30E0C901880F991F880F991FC8
:1008E000820F931F909581959F4F845D9E4FAA27FD
:1008F00097FDA095BA2FBC01CD010E94820086E32E
:1009000090E0FC018081882F90E0807290700097C9
:1009100019F186E390E0FC0180818823ECF486E302
:1009200090E0FC018081882F90E0807490700097A7
:1009300099F41092AC002091B8008091B800882FF3
:1009400090E086589F4FFC019081822F692F0E9472
:1009500049000E94E20005C08091AC008E3108F48D
:1009600046CD8091AA008F7D8093AA00DF91CF9120
:1009700008950F931F93CF93DF93CDB7DEB7809188
:10098000AA0084608093AA000E94E2008091B800CF
:10099000082F10E08091B8000E946700282FC8013E
:1009A00086589F4FFC0120838091B800882F90E0EB
:1009B00086589F4FFC0180819AE0692F0E940A1A95
:1009C0008093B6008091B800882F90E086589F4FA2
:1009D000FC0180819AE0692F0E940A1A892F809376
:1009E000B5008091B800863050F08091B800883012
:1009F00030F48091AA0080648093AA0005C08091A1
:100A0000AA008F7B8093AA008091B500809372002A
:100A10008091B600809373008091B800882F90E099
:100A20004E962AE030E0B9010E94161A80937400B5
:100A30008091B800882F90E04E962AE030E0B9010E
:100A40000E94161A9B01C90180937500000086E37D
:100A500090E0FC018081882F90E080749070009776
:100A6000B1F386E390E0FC018081882384F786E37C
:100A700090E0FC018081882F90E080729070009758
:100A800031F33DC20E949C0186E390E0FC0180812D
:100A9000882F90E080729070009709F0BFC086E3C5
:100AA00090E0FC01808188230CF0B8C086E390E0E0
:100AB000FC018081882F90E080749070009709F489
:100AC000ADC080918100282F30E0C901880F991FA7
:100AD000880F991F820F931F909581959F4F845D7A
:100AE0009E4FAA2797FDA095BA2FBC01CD010E9469
:100AF000820086E390E0FC018081882F90E0807284
:100B00009070009709F08AC086E390E0FC01808134
:100B100088230CF083C086E390E0FC018081882F5D
:100B200090E080749070009709F478C08091B800CC
:100B30008F5F8093B8008091B8008E3010F01092D3
:100B4000B8008091B800863050F08091B8008830AD
:100B500030F48091AA0080648093AA0005C080913F
:100B6000AA008F7B8093AA001092AC008091B800FD
:100B7000082F10E08091B8000E946700282FC8015C
:100B800086589F4FFC0120838091B800882F90E009
:100B900086589F4FFC0180819AE0692F0E940A1AB3
:100BA0008093B6008091B800882F90E086589F4FC0
:100BB000FC0180819AE0692F0E940A1A892F809394
:100BC000B5008091B500809372008091B60080934B
:100BD00073008091B800882F90E04E962AE030E0B4
:100BE000B9010E94161A809374008091B800882F72
:100BF00090E04E962AE030E0B9010E94161A9B015F
:100C0000C90180937500000086E390E0FC018081BB
:100C1000882F90E0807290700097B1F386E390E0A7
:100C2000FC018081882F90E080729070009709F419
:100C3000BCC086E390E0FC01808188230CF4B5C041
:100C400086E390E0FC018081882F90E080749070B2
:100C5000009709F4AAC080918100282F30E0C901D3
:100C6000880F991F880F991F820F931F9095819568
:100C70009F4F845D9E4FAA2797FDA095BA2FBC0178
:100C8000CD010E94820086E390E0FC018081882FE4
:100C900090E080729070009709F487C086E390E03E
:100CA000FC01808188230CF480C086E390E0FC0185
:100CB0008081882F90E080749070009709F475C04F
:100CC0008091B80081508093B8008091B8008E3038
:100CD00018F08DE08093B8008091B800863050F015
:100CE0008091B800883030F48091AA0080648093AD
:100CF000AA0005C08091AA008F7B8093AA00109261
:100D0000AC008091B800082F10E08091B8000E94DC
:100D10006700282FC80186589F4FFC0120838091CF
:100D2000B800882F90E086589F4FFC0180819AE0A0
:100D3000692F0E940A1A8093B6008091B800882F0C
:100D400090E086589F4FFC0180819AE0692F0E94B5
:100D50000A1A892F8093B5008091B50080937200A4
:100D60008091B600809373008091B800882F90E046
:100D70004E962AE030E0B9010E94161A8093740062
:100D80008091B800882F90E04E962AE030E0B901BB
:100D90000E94161A9B01C90180937500000086E32A
:100DA00090E0FC0180818823D4F786E390E0FC0189
:100DB0008081882F90E080729070009709F453C072
:100DC00086E390E0FC01808188230CF04CC086E330
:100DD00090E0FC018081882F90E0807490700097F3
:100DE00009F041C080918100282F30E0C901880FAF
:100DF000991F880F991F820F931F909581959F4F80
:100E0000845D9E4FAA2797FDA095BA2FBC01CD0106
:100E10000E94820086E390E0FC018081882F90E0B0
:100E2000807290700097F9F086E390E0FC01808179
:100E30008823CCF486E390E0FC018081882F90E049
:100E400080749070009779F41092AC000E94E201D7
:100E5000000086E390E0FC018081882F90E08074A0
:100E600090700097B1F386E390E0FC018081882FB9
:100E700090E080749070009709F041C086E390E0A4
:100E8000FC018081882F90E0807290700097B9F506
:100E900086E390E0FC01808188238CF180918100C1
:100EA000482F50E026E03FEF429FC001439F900D46
:100EB000529F900D112488579C4EAA2797FDA0950C
:100EC000BA2FBC01CD010E94820086E390E0FC01B4
:100ED0008081882F90E080749070009781F486E381
:100EE00090E0FC018081882F90E0807290700097E4
:100EF00031F486E390E0FC018081882334F4809112
:100F0000AC008E3108F4BECD01C00000DF91CF915E
:100F10001F910F910895CF93DF93CDB7DEB786E38E
:100F200090E0FC018081882F90E0807290700097A3
:100F300091F586E390E0FC018081882364F1809143
:100F40008100482F50E027EE3FEF429FC001439FB2
:100F5000900D529F900D11248C509E4FAA2797FD03
:100F6000A095BA2FBC01CD010E94820086E390E0DB
:100F7000FC018081882F90E080729070009759F476
:100F800086E390E0FC01808188232CF081E080934F
:100F9000BF001092BA00DF91CF910895CF93DF93F5
:100FA000CDB7DEB78091AA0081608093AA0010922D
:100FB000BD0088E390E028E330E0F90120812B7F39
:100FC000FC0120838091650080937500809164000E
:100FD000809374008AE0809373008AE080937200AB
:100FE00080917500880F982F990F990F980F809115
:100FF0007400890F8093B7000E944B01109281000A
:10100000000086E390E0FC018081882F90E08074EE
:1010100090700097B1F380918100482F50E027EE47
:101020003FEF429FC001439F900D529F900D1124AE
:101030008C509E4FAA2797FDA095BA2FBC01CD01D9
:101040000E948200F8C00E949C0186E390E0FC01AF
:101050008081882F90E080729070009709F051C0D5
:1010600080918100282F30E0C901880F991F880FD7
:10107000991F820F931F909581959F4F845D9E4F7E
:10108000AA2797FDA095BA2FBC01CD010E9482002E
:1010900086E390E0FC018081882F90E08072907060
:1010A000009779F51092AC008091B7008F5F809324
:1010B000B7008091B700883110F01092B70080918E
:1010C000B7009AE0692F0E940A1A809375008091F8
:1010D000B7009AE0692F0E940A1A892F8093740042
:1010E000000086E390E0FC018081882F90E0807210
:1010F0009070009731F486E390E0FC0180818823B2
:1011000084F386E390E0FC01808188230CF450C0D6
:1011100080918100282F30E0C901880F991F880F26
:10112000991F820F931F909581959F4F845D9E4FCD
:10113000AA2797FDA095BA2FBC01CD010E9482007D
:1011400086E390E0FC018081882394F11092AC004A
:101150008091B70081508093B7008091B7008931AA
:1011600018F087E18093B7008091B7009AE0692F6B
:101170000E940A1A809375008091B7009AE0692F47
:101180000E940A1A892F80937400000086E390E081
:10119000FC018081882364F086E390E0FC0180817B
:1011A000882F90E080729070009781F701C0000056
:1011B00086E390E0FC018081882F90E0807490703D
:1011C0000097A9F086E390E0FC018081882F90E0F1
:1011D00080729070009731F486E390E0FC0180818A
:1011E00088232CF48091AC008E3108F42CCF8091B0
:1011F000AC008E31C0F480918100482F50E027EE82
:101200003FEF429FC001439F900D529F900D1124CC
:101210008C509E4FAA2797FDA095BA2FBC01CD01F7
:101220000E94820008C08091AA0088608093AA0072
:1012300081E08093BF0086E390E0FC018081882FED
:1012400090E0807490700097A9F086E390E0FC0134
:101250008081882F90E080729070009731F486E34F
:1012600090E0FC01808188232CF48091AC008E31C9
:1012700008F49DCF80917400809364008091750084
:10128000809365000E94E2001092B9008091BF0037
:10129000882309F03DC180916300809373008091A1
:1012A00062008093720080916300880F982F990FDD
:1012B000990F980F80916200890F8093B70000000A
:1012C00086E390E0FC018081882F90E0807490702C
:1012D0000097B1F380918100482F50E027EE3FEF57
:1012E000429FC001439F900D529F900D11248C503E
:1012F0009E4FAA2797FDA095BA2FBC01CD010E9451
:101300008200DBC00E949C0186E390E0FC018081AA
:10131000882F90E080729070009709F04BC0809108
:101320008100282F30E0C901880F991F880F991F6D
:10133000820F931F909581959F4F845D9E4FAA27A2
:1013400097FDA095BA2FBC01CD010E94820086E3D3
:1013500090E0FC018081882F90E08072907000976F
:1013600049F51092AC008091B7008F5F8093B70071
:101370008091B7008C3311F41092B7008091B700C0
:101380009AE0692F0E940A1A809373008091B70037
:101390009AE0692F0E940A1A892F80937200000038
:1013A00086E390E0FC018081882F90E0807290704D
:1013B0000097B1F386E390E0FC01808188230CF470
:1013C00046C080918100282F30E0C901880F991F05
:1013D000880F991F820F931F909581959F4F845D71
:1013E0009E4FAA2797FDA095BA2FBC01CD010E9460
:1013F000820086E390E0FC018081882344F1109212
:10140000AC008091B70081508093B7008091B70005
:101410008F3F19F48BE38093B7008091B7009AE077
:10142000692F0E940A1A809373008091B7009AE096
:10143000692F0E940A1A892F80937200000086E3A8
:1014400090E0FC0180818823D4F701C0000086E38E
:1014500090E0FC018081882F90E08074907000976C
:10146000A9F086E390E0FC018081882F90E08072F3
:101470009070009731F486E390E0FC01808188232E
:101480002CF48091AC008E3108F43CCF8091810027
:10149000482F50E027EE3FEF429FC001439F900D41
:1014A000529F900D11248C509E4FAA2797FDA09516
:1014B000BA2FBC01CD010E94820086E390E0FC01BE
:1014C0008081882F90E0807490700097A9F086E367
:1014D00090E0FC018081882F90E0807290700097EE
:1014E00031F486E390E0FC01808188232CF4809124
:1014F000AC008E3108F4AACF809173008093630012
:1015000080917200809362001092610010926000DE
:10151000DF91CF910895CF93DF93CDB7DEB71092CF
:10152000BD0088E390E028E330E0F901308124E059
:101530002327FC0120831AC061E070E080E090E086
:101540000E9482008091C0009091C100019690930A
:10155000C1008093C0008091C0009091C100F3E170
:1015600089389F0718F00E94CE070AC086E390E0F2
:10157000FC018081882F90E0807490700097E1F2E8
:101580001092C1001092C0008091AA00882F90E0B4
:1015900081709070009709F0C1C20E944B0186E0F3
:1015A0008093B90088E390E028E330E0F9012081DE
:1015B0002460FC0120838091AA0082608093AA00AD
:1015C00080917900809375008091780080937400F9
:1015D0008AE0809373008AE08093720080917500A6
:1015E000880F982F990F990F980F80917400890F89
:1015F0008093B70080918100482F50E027EE3FEFA5
:10160000429FC001439F900D529F900D11248C501A
:101610009E4FAA2797FDA095BA2FBC01CD010E942D
:101620008200F8C00E949C0186E390E0FC0180816A
:10163000882F90E080729070009709F051C08091DF
:101640008100282F30E0C901880F991F880F991F4A
:10165000820F931F909581959F4F845D9E4FAA277F
:1016600097FDA095BA2FBC01CD010E94820086E3B0
:1016700090E0FC018081882F90E08072907000974C
:1016800079F51092AC008091B7008F5F8093B7001E
:101690008091B700883110F01092B7008091B700A8
:1016A0009AE0692F0E940A1A809375008091B70012
:1016B0009AE0692F0E940A1A892F80937400000013
:1016C00086E390E0FC018081882F90E0807290702A
:1016D000009731F486E390E0FC018081882384F355
:1016E00086E390E0FC01808188230CF450C0809157
:1016F0008100282F30E0C901880F991F880F991F9A
:10170000820F931F909581959F4F845D9E4FAA27CE
:1017100097FDA095BA2FBC01CD010E94820086E3FF
:1017200090E0FC018081882394F11092AC008091BC
:10173000B70081508093B7008091B700893118F0CD
:1017400087E18093B7008091B7009AE0692F0E94EB
:101750000A1A809375008091B7009AE0692F0E9461
:101760000A1A892F80937400000086E390E0FC0140
:101770008081882364F086E390E0FC018081882FDB
:1017800090E080729070009781F701C0000086E3BE
:1017900090E0FC018081882F90E080749070009729
:1017A000A9F086E390E0FC018081882F90E08072B0
:1017B0009070009731F486E390E0FC0180818823EB
:1017C0002CF48091AC008E3108F42CCF8091AC00C9
:1017D0008E31C0F480918100482F50E027EE3FEF1A
:1017E000429FC001439F900D529F900D11248C5039
:1017F0009E4FAA2797FDA095BA2FBC01CD010E944C
:10180000820008C08091AA0088608093AA0081E0CD
:101810008093BF0086E390E0FC018081882F90E0F8
:10182000807490700097A9F086E390E0FC018081BD
:10183000882F90E080729070009731F486E390E0FA
:10184000FC01808188232CF48091AC008E3108F457
:101850009DCF0E94E2001092B9001092AC008091DE
:1018600075008093790080917400809378000E94C5
:101870008B078091BF00882309F050C180917700C9
:101880008093730080917600809372008091730042
:10189000880F982F990F990F980F80917200890FD8
:1018A0008093B700000086E390E0FC018081882FE0
:1018B00090E0807490700097B1F380918100482F80
:1018C00050E027EE3FEF429FC001439F900D529F93
:1018D000900D11248C509E4FAA2797FDA095BA2FEA
:1018E000BC01CD010E948200EBC00E949C0186E3F6
:1018F00090E0FC018081882F90E0807290700097CA
:1019000009F051C080918100282F30E0C901880F73
:10191000991F880F991F820F931F909581959F4F54
:10192000845D9E4FAA2797FDA095BA2FBC01CD01DB
:101930000E94820086E390E0FC018081882F90E085
:1019400080729070009779F51092AC008091B7008A
:101950008F5F8093B7008091B7008C3311F41092A1
:10196000B7008091B7009AE0692F0E940A1A80930D
:1019700073008091B7009AE0692F0E940A1A892F9C
:1019800080937200000086E390E0FC018081882F44
:1019900090E080729070009731F486E390E0FC0153
:1019A0008081882384F386E390E0FC018081882392
:1019B0000CF450C080918100282F30E0C901880FBD
:1019C000991F880F991F820F931F909581959F4FA4
:1019D000845D9E4FAA2797FDA095BA2FBC01CD012B
:1019E0000E94820086E390E0FC018081882394F1CC
:1019F0001092AC008091B70081508093B700809125
:101A0000B7008F3F19F48BE38093B7008091B70044
:101A10009AE0692F0E940A1A809373008091B700A0
:101A20009AE0692F0E940A1A892F809372000000A1
:101A300086E390E0FC018081882364F086E390E0F7
:101A4000FC018081882F90E080729070009781F770
:101A500001C0000086E390E0FC018081882F90E0C7
:101A6000807490700097A9F086E390E0FC0180817B
:101A7000882F90E080729070009731F486E390E0B8
:101A8000FC01808188232CF48091AC008E3108F415
:101A90002CCF80918100482F50E027EE3FEF429FEE
:101AA000C001439F900D529F900D11248C509E4F6A
:101AB000AA2797FDA095BA2FBC01CD010E948200F4
:101AC00086E390E0FC018081882F90E08074907024
:101AD0000097A9F086E390E0FC018081882F90E0D8
:101AE00080729070009731F486E390E0FC01808171
:101AF00088232CF48091AC008E3108F4AACF109288
:101B0000AC0081E08093BA008091730080937700ED
:101B100080917200809376000E948B071092BF0024
:101B20008091AA008E7F8093AA008091AA008D7F69
:101B30008093AA008091AA00877F8093AA001092C8
:101B4000AC0088E390E028E330E0F90120812460D4
:101B5000FC012083DF91CF910895CF93DF93CDB720
:101B6000DEB780917A00882F90E08130910579F07E
:101B700082309105B9F00097F9F488E390E028E30A
:101B800030E0F90120812460FC01208315C088E346
:101B900090E028E330E0F901308124E02327FC01C4
:101BA00020830AC088E390E028E330E0F901208137
:101BB0002B7FFC0120830000DF91CF910895789462
:101BC0001F920F920FB60F9211242F933F934F93B2
:101BD0005F936F937F938F939F93AF93BF93EF9395
:101BE000FF93CF93DF93CDB7DEB785E590E0FC019F
:101BF000108288E290E020E4FC0120838091C800FC
:101C00009091C90001969093C9008093C80080917B
:101C1000BE00882309F041C08091AA00882F90E07F
:101C200082709070009781F48091AA00882F90E0D4
:101C300081709070882341F48091AA00882F90E0F1
:101C400084709070009721F18091AC008F5F809339
:101C5000AC008091AA00882F90E08470907000976B
:101C600011F00E94AD0D8091AA00882F90E0807243
:101C70009070009779F08091C8009091C9008230EF
:101C8000910519F40E944B0105C00E94E20002C0B8
:101C90000E94AD0D81E08093BD008091C8009091BD
:101CA000C9008230910509F012C18091AB00882FE4
:101CB00090E081709070882309F468C0809166007C
:101CC0008F5F80936600809166008A3039F480913E
:101CD000AD008F5F8093AD00109266008091670029
:101CE0008F5F80936700809167008A3011F41092B3
:101CF0006700809168008F5F809368008091680022
:101D00008A3011F410926800809169008F5F80938F
:101D10006900809169008A3011F410926900809105
:101D20006A008F5F80936A0080916A008A3011F4A4
:101D300010926A0080916B008F5F80936B0080919E
:101D40006B008A3011F410926B008091AD008630E8
:101D5000E9F48091AB008E7F8093AB008DE060E072
:101D60000E9449001092AD0081E08093660082E0FD
:101D70008093670083E08093680084E0809369002B
:101D800085E080936A0086E080936B001092BD002E
:101D9000809160008F5F80936000809160008A3046
:101DA00009F053C010926000809161008F5F8093B2
:101DB000610080916100863009F047C01092610097
:101DC000809162008F5F80936200809162008A3010
:101DD000E1F510926200809163008F5F8093630051
:101DE00080916300863089F51092630080916400D1
:101DF0008F5F8093640080916500882359F48091FF
:101E000064008A3039F410926400809165008F5F1D
:101E10008093650080916500813059F48091640061
:101E20008A3039F410926400809165008F5F80934E
:101E3000650080916500823041F4809164008430B7
:101E400021F410926400109265008091600085304A
:101E5000D1F5809161008230B1F5809162008230CD
:101E600091F580916300853071F580916400823036
:101E700051F580916500882331F58091850085506A
:101E80008093AE008091AE008823B4F49091AB00B3
:101E900082E089278093AB008091AB00882F90E08F
:101EA00082709070009779F0909160008091AE0000
:101EB000890F8093600007C0909160008091AE0010
:101EC000890F809360001092C9001092C800809121
:101ED00084008130D1F4809160008823B1F4809136
:101EE0006100882391F480916200882371F48091CD
:101EF0006300882351F48091C8009091C900009735
:101F000021F481E08093BC0002C01092BC0080915B
:101F1000BA008130E1F490917600809162009817C8
:101F2000B1F49091770080916300981781F49091BB
:101F3000780080916400981751F490917900809115
:101F40006500981721F481E08093BB0002C01092D5
:101F5000BB008091BE00813009F098C088E290E01B
:101F6000FC018081882F90E080729070009709F0CA
:101F70008DC08EE18093AC001092BE001092D20012
:101F80001092D3001092D4001092D5001092CB0082
:101F90001092CA008AE090E090936E0080936D00EA
:101FA0008091AA008F7E8093AA0087E290E027E0CC
:101FB000FC01208386E290E02FE8FC0120838AE385
:101FC00090E02FE3FC0120838BE390E0FC01108282
:101FD00081E390E02FEFFC01208382E390E0FC019D
:101FE000108287E390E020E1FC01208388E390E009
:101FF0002FEEFC01208388E390E028E330E0F90134
:1020000020812062FC01208388E390E028E330E017
:10201000F90120812064FC01208388E390E028E31B
:1020200030E0F90120812068FC01208384E390E006
:102030002FEFFC01208385E390E0FC0110828FE408
:1020400090E022EAFC0120838EE490E029E1FC018B
:10205000208386E490E02AEF30E0FC013183208386
:1020600089E590E021E4FC0120831092C3001092E6
:10207000C20080E28093B10083E590E024E0FC019F
:10208000208382E590E028ECFC012083DF91CF9152
:10209000FF91EF91BF91AF919F918F917F916F9140
:1020A0005F914F913F912F910F900FBE0F901F9016
:1020B00018951F920F920FB60F9211242F933F93F2
:1020C0004F935F936F937F938F939F93AF93BF9340
:1020D000EF93FF93CF93DF93CDB7DEB782E590E028
:1020E00028ECFC01208386E290E026E230E0F90152
:1020F00020812064FC01208386E390E0FC01808144
:10210000882F90E080749070009721F480917E0079
:102110008130C1F086E390E0FC018081882F90E05F
:1021200080729070009721F480917E00813051F090
:1021300086E390E0FC01808188235CF180917E0041
:10214000813039F58091AA0080688093AA0080913F
:102150006F00823378F48BE390E02BE330E0F901F9
:1021600020812062FC01208380916F008F5F80932B
:102170006F0024C08BE390E02BE330E0F901208175
:102180002F7DFC0120838091AA008F778093AA0085
:1021900015C08091AA008F778093AA0080916F006C
:1021A000823360F48BE390E02BE330E0F90120818F
:1021B0002F7DFC0120838FEF80936F0086E390E0FA
:1021C000FC018081882F90E080749070009791F0DE
:1021D00086E390E0FC018081882F90E0807290700F
:1021E000009741F086E390E0FC018081882314F49D
:1021F00010926F008091BB00813041F48091BA0051
:10220000813021F48091BD00813029F08091BC00A3
:10221000813009F047C08091DE008F5F8093DE003F
:102220008091DE00823350F48BE390E02BE330E0CA
:10223000F90120812062FC01208337C08091DE00FB
:10224000843650F48BE390E02BE330E0F9012081F9
:102250002F7DFC01208329C08091DE00863950F457
:102260008BE390E02BE330E0F90120812062FC0158
:1022700020831BC08091DE00883C60F48BE390E0FB
:102280002BE330E0F90120812F7DFC0120831092A7
:10229000BC000BC08091DE00893C38F088EC809354
:1022A000DE0003C01092DE0001C000008091AA0091
:1022B000882F90E082709070009709F09EC0809106
:1022C000AA00882F90E081709070882309F095C053
:1022D0008091AA00882F90E084709070009709F098
:1022E0008CC08091AB00882F90E081709070882323
:1022F00089F08091C2009091C3002091C20030917A
:10230000C3002A593F4FF901208180599F4FFC019A
:10231000208373C08091C2009091C3002091C200BD
:102320003091C300205A3F4FF901208180599F4FBF
:10233000FC01208380916500880F982F990F990FD9
:10234000980F80916400890F8093B70080917B0083
:10235000882339F58091B7008D30B0F08091B700B7
:102360008C508093B7008091B7009AE0692F0E944B
:102370000A1A809375008091B7009AE0692F0E9435
:102380000A1A892F809374008091B700882349F43A
:102390008CE08093B70081E08093750082E08093A9
:1023A000740080917C008823E9F48091B7008A3022
:1023B00068F482E08093AF0085E08093B00088E00D
:1023C0008093B20081E08093B30017C082E08093D5
:1023D000AF0086E08093B00088E08093B200109256
:1023E000B3000BC082E08093AF0086E08093B00022
:1023F00088E08093B2001092B30085E390E025E37B
:1024000030E0F9012081207FFC0120838091B90018
:10241000882F90E0A0E0B0E0BC01CD010E94B200A6
:102420008BE390E02BE330E0F90120812F61FC0188
:1024300020838BE390E02BE330E0F9014081209191
:10244000C2003091C30020593F4FF9012081222F53
:1024500030E022563F4FF9012081206E2423FC01F9
:10246000208382E390E022E330E0F90120812F64B1
:10247000FC01208382E390E022E330E0F901408117
:102480002091C2003091C30020593F4FF9012081B3
:10249000222F30E02D563F4FF9012081206B24235D
:1024A000FC01208385E390E025E330E0F901208101
:1024B000322F3F602091B100206F2323FC01208345
:1024C0008091C2009091C30001969093C3008093C5
:1024D000C2008091B000282F30E08091C20090911E
:1024E000C3008217930740F08091AF00882F90E0DF
:1024F0009093C3008093C2008091B1008695809331
:10250000B1009091B1008091B300891720F08091C3
:10251000B2008093B100DF91CF91FF91EF91BF9115
:10252000AF919F918F917F916F915F914F913F916B
:102530002F910F900FBE0F901F9018951F920F9222
:102540000FB60F9211242F933F934F935F936F9386
:102550007F938F939F93AF93BF93EF93FF93CF930B
:10256000DF93CDB7DEB786E290E026E230E0F901F6
:102570002081277FFC01208387E290E0FC0180819D
:10258000882F90E08630910529F08730910509F475
:1025900048C12BC284E290E0FC012081318180910E
:1025A000C6009091C7002817390760F082E890E0D4
:1025B0009093CB008093CA008FE990E090936E00D7
:1025C00080936D002091C6003091C70084E290E0B6
:1025D000FC0180819181A901481B590BCA0190938C
:1025E000CD008093CC008091CC009091CD00AA27A3
:1025F00097FDA095BA2F2091CA003091CB00990188
:1026000040E050E0BC01CD010E94EB19DC01CB01A0
:102610008093CE009093CF00A093D000B093D100D0
:102620008091CE009091CF00A091D000B091D100C8
:1026300020E034E040E050E0BC01CD010E94291AC6
:10264000DA01C9018093D6009093D700A093D800F7
:10265000B093D9008091CC009091CD00AA2797FD2E
:10266000A095BA2F20916D0030916E00990140E045
:1026700050E0BC01CD010E94EB19DC01CB0180933D
:10268000CE009093CF00A093D000B093D100809162
:10269000CE009091CF00A091D000B091D10020E069
:1026A00034E040E050E0BC01CD010E94291ADA017B
:1026B000C9018093CE009093CF00A093D000B09337
:1026C000D1002091D2003091D3004091D40050919C
:1026D000D5008091CE009091CF00A091D000B09114
:1026E000D100820F931FA41FB51F8093D200909337
:1026F000D300A093D400B093D5008091D2009091E4
:10270000D300A091D400B091D500893354E095074F
:1027100050E0A50750E0B5076CF088E394E0A0E036
:10272000B0E08093D2009093D300A093D400B093F4
:10273000D5001CC08091D2009091D300A091D4000C
:10274000B091D500883CEBEF9E07EFEFAE07EFEFBF
:10275000BE0764F488EC9BEFAFEFBFEF8093D2002D
:102760009093D300A093D400B093D5002091D600CD
:102770003091D7004091D8005091D9008091D2007B
:102780009091D300A091D400B091D500820F931FF7
:10279000A41FB51F8093DA009093DB00A093DC00A8
:1027A000B093DD008091DA009091DB00A091DC0015
:1027B000B091DD00BB234CF41092DA001092DB00E4
:1027C0001092DC001092DD0019C08091DA00909127
:1027D000DB00A091DC00B091DD00873E9105A105F2
:1027E000B10564F086EE90E0A0E0B0E08093DA00FE
:1027F0009093DB00A093DC00B093DD002AE430E08E
:102800008091DA009091DB00A091DC00B091DD00B6
:10281000F9019183808387E290E027E0FC01208327
:10282000E4C08091AB00882F90E081709070882385
:1028300039F08CE692E09093C7008093C600CFC039
:1028400084E290E0FC012081318180918200482F58
:1028500050E080918300882F90E0840F951F880FAF
:10286000991FAC01440F551F440F551F840F951F2E
:1028700080509E4F2817390710F18091AA00882FA9
:1028800090E0847090700097D1F480918000282FA0
:1028900030E0C901880F991F820F931F880F991F7D
:1028A000880F991F820F931F81569E4F9093C700E8
:1028B0008093C600809181008093B90090C0809180
:1028C000AA00882F90E0807490700097D1F08091DA
:1028D0008000282F30E0C901880F991F820F931FB5
:1028E000880F991F880F991F820F931F81569E4F43
:1028F0009093C7008093C600809181008093B900B7
:102900006EC084E290E0FC012081318180918200E0
:10291000882F90E0880F991FAC01440F551F440F7A
:10292000551F480F591F80918300882F90E0880F12
:10293000991FBC01660F771F660F771F860F971FC1
:10294000909581959F4F840F951F80509E4F28171B
:10295000390718F58091AA00882F90E08470907054
:102960000097D9F480917F00882F90E0880F991FFD
:102970009C01220F331F220F331F220F331FA90187
:10298000481B590BCA0186519E4F9093C7008093F4
:10299000C60081E08093B90022C08091AA00882FF0
:1029A00090E0847090700097D1F080917F00882F24
:1029B00090E0880F991F9C01220F331F220F331FB5
:1029C000220F331FF901E81BF90BCF0186519E4FEF
:1029D0009093C7008093C60081E08093B90087E29E
:1029E00090E026E0FC012083000086E290E026E2F1
:1029F00030E0F90120812860FC012083DF91CF9134
:102A0000FF91EF91BF91AF919F918F917F916F91C6
:102A10005F914F913F912F910F900FBE0F901F909C
:102A200018950F931F93CF93DF93CDB7DEB781E057
:102A3000809393001092940010929500109296004B
:102A400084E08093970080E48093980088E08093EE
:102A5000990010929A0010929B0082E080939C0053
:102A600010929D0010929E0080E180939F0088E06C
:102A70008093A00084E08093A1001092A2001092A5
:102A8000A3001092A40081E08093A50082E08093CF
:102A9000A6001092A7001092A80081E390E02FEF0B
:102AA000FC01208382E390E0FC0110828AE390E045
:102AB0002FE3FC0120838BE390E0FC01108287E38D
:102AC00090E024E1FC01208388E390E02EEFFC01FC
:102AD000208384E390E02FEFFC01208385E390E0E6
:102AE000FC01108281E08093850081E08093860064
:102AF00081E08093870081E08093880010928900B4
:102B000087E080938A0087E080938B0010928C008E
:102B100085E080938D0083E080938E0010928F007B
:102B200087E08093900081E0809391001092920062
:102B300088E390E028E330E0F90120812062FC0185
:102B4000208388E390E028E330E0F90120812068C9
:102B5000FC01208388E390E028E330E0F901208144
:102B60002064FC0120838FE490E022EAFC012083B2
:102B70008EE490E029E1FC01208386E490E02AEFD6
:102B800030E0FC013183208388E290E020E4FC0106
:102B9000208387E290E027E0FC01208386E290E03A
:102BA0002FE8FC01208383E590E024E0FC012083F2
:102BB00082E590E028ECFC01208389E590E021E0AB
:102BC000FC01208385E490E029E6FC01208382E477
:102BD00090E028E0FC01208385E490E024E0FC0103
:102BE000208384E490E0FC0110821092C3001092D4
:102BF000C20044C00091C2001091C3008091C20085
:102C00009091C3000E946700282FC80186589F4FEB
:102C1000FC0120838091C2009091C30086589F4F91
:102C2000FC0180818F3008F18091C2009091C30037
:102C30002091C2003091C3002B573F4FF9012081F2
:102C400086589F4FFC0120838091C2009091C30061
:102C5000282F8091C2009091C30086589F4FFC019D
:102C60009081822F692F0E9449008091C20090912B
:102C7000C30001969093C3008093C2008091C2006C
:102C80009091C3008E30910508F4B4CF0E94E20009
:102C900089E590E021E4FC01208388E390E028E3CB
:102CA00030E0F90120812460FC01208380917D00C7
:102CB000813021F481E08093BA0002C01092BA0002
:102CC0001092CB001092CA008AE090E090936E00C0
:102CD00080936D008FE590E020E8FC0120838091D7
:102CE0008600813039F48091AB0081608093AB0025
:102CF00001C000000E949C0188E290E0FC018081FC
:102D0000882F90E080729070009799F78091AB00C7
:102D1000882F90E081709070882309F486C086E344
:102D200090E0FC018081882F90E080749070009783
:102D300081F086E390E0FC018081882F90E0807232
:102D40009070009731F086E390E0FC018081882349
:102D500084F280918100282F30E0C901880F991FEB
:102D6000880F991F820F931F909581959F4F845DC7
:102D70009E4FAA2797FDA095BA2FBC01CD010E94B6
:102D8000820086E390E0FC018081882F90E08074CF
:102D90009070009789F086E390E0FC018081882F95
:102DA00090E080729070009739F086E390E0FC012B
:102DB000808188230CF49DCF8091AB008E7F80931F
:102DC000AB008DE060E00E9449001092AD0081E010
:102DD0008093660082E08093670083E080936800C0
:102DE00084E08093690085E080936A0086E08093A8
:102DF0006B00000086E390E0FC018081882F90E06A
:102E0000807490700097B1F386E390E0FC018081BC
:102E1000882384F786E390E0FC018081882F90E08E
:102E200080729070009731F3D5C286E390E0FC0188
:102E30008081882F90E080729070009781F486E303
:102E400090E0FC018081882354F086E390E0FC014F
:102E50008081882F90E080749070009751F4809169
:102E60006C00882309F086C08091BB00813009F096
:102E700081C080918100482F50E026E03FEF429FC3
:102E8000C001439F900D529F900D112488579C4E76
:102E9000AA2797FDA095BA2FBC01CD010E94820000
:102EA00086E390E0FC018081882F90E08072907032
:102EB000009781F486E390E0FC018081882354F040
:102EC00086E390E0FC018081882F90E08074907010
:102ED000009751F480916C00882309F04BC08091D9
:102EE000BB00813009F046C083E590E0FC01108210
:102EF0008FE490E0FC0110828EE490E0FC011082EF
:102F000086E290E0FC0110828BE390E0FC011082ED
:102F100085E390E0FC01108282E390E0FC011082E6
:102F200010926C0080918100482F50E026E03FEF26
:102F3000429FC001439F900D529F900D11248857CE
:102F40009C4EAA2797FDA095BA2FBC01CD010E94E7
:102F50008200000086E390E0FC0180818823D4F7A2
:102F600086E390E0FC018081882F90E08072907071
:102F7000009781F380916C00882309F0A6C086E356
:102F800090E0FC018081882F90E080749070009721
:102F900089F086E390E0FC018081882F90E08072C8
:102FA0009070009739F086E390E0FC0180818823DF
:102FB0000CF48BC080918100282F30E0C901880F6C
:102FC000991F880F991F820F931F909581959F4F8E
:102FD000845D9E4FAA2797FDA095BA2FBC01CD0115
:102FE0000E94820086E390E0FC018081882F90E0BF
:102FF00080749070009789F086E390E0FC018081F6
:10300000882F90E080729070009739F086E390E00E
:10301000FC01808188230CF458C01092D2001092D9
:10302000D3001092D4001092D5001092CB001092D1
:10303000CA008AE090E090936E0080936D008091CA
:10304000AA008F7E8093AA0086E290E02FE8FC0120
:10305000208382E390E0FC01108285E390E0FC0194
:1030600010828FE490E022EAFC0120838EE490E05D
:1030700029E1FC01208386E490E02AEF30E0FC01A6
:103080003183208383E590E024E0FC01208381E00C
:1030900080936C00000086E390E0FC018081882F23
:1030A00090E0807490700097B1F386E390E0FC01AB
:1030B0008081882384F786E390E0FC018081882F5B
:1030C00090E080729070009731F38091BB00813066
:1030D00009F07FC08091BA00813009F07AC08091F8
:1030E0006C00813009F075C086E390E0FC018081BE
:1030F000882F90E080749070009789F086E390E0CC
:10310000FC018081882F90E080729070009739F0E8
:1031100086E390E0FC01808188230CF45AC0809102
:103120008100282F30E0C901880F991F880F991F4F
:10313000820F931F909581959F4F845D9E4FAA2784
:1031400097FDA095BA2FBC01CD010E94820086E3B5
:1031500090E0FC018081882F90E08074907000974F
:1031600081F086E390E0FC018081882F90E08072FE
:103170009070009731F086E390E0FC018081882315
:103180006CF01092DE008BE390E02BE330E0F9016D
:1031900020812F7DFC0120831092BA00000086E37D
:1031A00090E0FC018081882F90E0807490700097FF
:1031B000B1F386E390E0FC018081882384F786E305
:1031C00090E0FC018081882F90E0807290700097E1
:1031D00031F386E390E0FC018081882F90E08074D9
:1031E0009070009709F069C086E390E0FC0180814F
:1031F00088230CF062C086E390E0FC018081882F78
:1032000090E080729070009709F457C080916C0034
:10321000813009F052C080918100482F50E027EEA4
:103220003FEF429FC001439F900D529F900D11248C
:103230008C509E4FAA2797FDA095BA2FBC01CD01B7
:103240000E94820086E390E0FC018081882F90E05C
:1032500080749070009789F586E390E0FC0180818E
:1032600088235CF586E390E0FC018081882F90E064
:1032700080729070009709F11092BA000E948B0A38
:103280000E94E200000086E390E0FC018081882F2C
:1032900090E0807490700097B1F386E390E0FC01B9
:1032A0008081882F90E080729070009761F386E3B0
:1032B00090E0FC018081882334F786E390E0FC01F4
:1032C0008081882F90E080749070009709F011CD74
:1032D00086E390E0FC018081882F90E080729070FE
:1032E000009709F006CD86E390E0FC0180818823F9
:1032F0000CF4FFCC80916C00813009F0FACC809105
:103300008100482F50E026E03FEF429FC001439FDD
:10331000900D529F900D112488579C4EAA2797FD1F
:10332000A095BA2FBC01CD010E94820086E390E0F7
:10333000FC018081882F90E080749070009709F0E4
:10334000D8CC86E390E0FC018081882F90E08072E9
:103350009070009709F0CDCC86E390E0FC0180816D
:1033600088230CF4C6CC0E94B9048091AA008B7FFC
:103370008093AA008091AA008F7B8093AA0010926C
:10338000AC000E94E20080918700813039F4809186
:10339000AB0081608093AB0010928700000086E351
:1033A00090E0FC018081882F90E0807490700097FD
:1033B000B1F386E390E0FC018081882384F786E303
:1033C00090E0FC018081882F90E0807290700097DF
:1033D00031F38FCC8ECC629FD001739FF001829F1E
:1033E000E00DF11D649FE00DF11D929FF00D839F94
:1033F000F00D749FF00D659FF00D9927729FB00D31
:10340000E11DF91F639FB00DE11DF91FBD01CF0143
:1034100011240895991B79E004C0991F961708F0AC
:10342000961B881F7A95C9F78095089597FB092EFA
:1034300007260AD077FD04D027D006D000201AF442
:10344000709561957F4F0895F6F7909581959F4F00
:10345000089597FB092E05260ED057FD04D028D0DD
:103460000AD0001C38F450954095309521953F4F77
:103470004F4F5F4F0895F6F7909580957095619541
:103480007F4F8F4F9F4F0895AA1BBB1B51E107C071
:10349000AA1FBB1FA617B70710F0A61BB70B881FE4
:1034A000991F5A95A9F780959095BC01CD01089573
:1034B000A1E21A2EAA1BBB1BFD010DC0AA1FBB1F38
:1034C000EE1FFF1FA217B307E407F50720F0A21BAA
:1034D000B30BE40BF50B661F771F881F991F1A9417
:1034E00069F760957095809590959B01AC01BD0141
:1034F000CF010895E199FECF9FBB8EBBE09A99273B
:103500008DB30895262FE199FECF9FBB8EBB2DBBB7
:103510000FB6F894E29AE19A0FBE01960895F894D6
:02352000FFCFDB
:10352200050509050302010203040506013B00FF2C
:00000001FF
