:100000000C942A000C9447000C9447000C94470071
:100010000C941C0C0C9447000C9447000C94470063
:100020000C9447000C94D10E0C9447000C9447009C
:100030000C9447000C9447000C94E2130C94470076
:100040000C9447000C9447000C9447000C94470014
:100050000C94470011241FBECFE5D4E0DEBFCDBF16
:1000600010E0A0E6B0E0E6E8F7E302C005900D92EC
:10007000A837B107D9F711E0A8E7B0E001C01D9299
:10008000A430B107E1F70E9450160C94C11B0C94E8
:100090000000CF93DF9300D0CDB7DEB789836A83AA
:1000A0008CE390E0FC018081882F90E0827090705A
:1000B0000097B1F78981882F90E0805090406A8145
:1000C0000E94B41B0F900F90DF91CF910895CF93B2
:1000D000DF930F92CDB7DEB789838CE390E0FC010C
:1000E0008081882F90E0827090700097B1F78981AD
:1000F000882F90E0805090400E94AC1B0F90DF91C1
:10010000CF910895CF93DF9300D000D00F92CDB759
:10011000DEB76A837B838C839D8314C0198204C0FD
:10012000000089818F5F898389818F39C8F38A8133
:100130009B81AC81BD810197A109B1098A839B8311
:10014000AC83BD838A819B81AC81BD810097A10571
:10015000B10521F70F900F900F900F900F90DF9146
:10016000CF910895CF93DF9300D000D00F92CDB7F9
:10017000DEB76A837B838C839D8314C0198204C09D
:10018000000089818F5F898389818733C8F38A81E1
:100190009B81AC81BD810197A109B1098A839B83B1
:1001A000AC83BD838A819B81AC81BD810097A10511
:1001B000B10521F70F900F900F900F900F90DF91E6
:1001C000CF910895CF93DF93CDB7DEB788E290E06B
:1001D000FC018081882F90E0807290700097A9F1D7
:1001E00083E590E0FC0110828FE490E0FC01108236
:1001F0008EE490E0FC01108289E590E020E4FC01AF
:10020000208386E290E0FC01108288E390E0FC010C
:10021000108285E390E0FC01108282E390E0FC0113
:1002200010828BE390E0FC0110826BE070E080E0D4
:1002300090E00E94820081E08093E40085E590E0F8
:1002400020E7FC01208388950000DF91CF9108957D
:10025000CF93DF93CDB7DEB78091CC0080628093DF
:10026000CC00000086E390E0FC018081882F90E0C4
:10027000807290700097B1F393C20E94E20086E30F
:1002800090E0FC018081882F90E08074907000974E
:1002900009F01BC186E390E0FC01808188230CF00B
:1002A00014C186E390E0FC018081882F90E0807289
:1002B0009070009709F409C16FE070E080E090E071
:1002C0000E94820086E390E0FC018081882F90E00C
:1002D00080749070009709F0F8C086E390E0FC010C
:1002E000808188230CF0F1C086E390E0FC018081DE
:1002F000882F90E080729070009709F4E6C080919A
:10030000DE00882F90E09C0128573F4FF9012081A3
:100310002F5F88579F4FFC0120838091DE00882348
:1003200021F08091DE008530C0F08091DE008A30BF
:10033000A1F08091DE008C3081F08091DE008D3064
:1003400061F08091DE008E3041F08091DE008F30D0
:1003500021F08091DE008031A9F48091DE00882FA9
:1003600090E088579F4FFC018081823008F461C083
:100370008091DE00882F90E088579F4F21E0FC019C
:10038000208357C08091DE008823A9F48091DE008D
:10039000882F90E088579F4FFC018081853008F4BA
:1003A00048C08091DE00882F90E088579F4F24E05E
:1003B000FC0120833EC08091DE008B3039F58091B6
:1003C000DE00882F90E088579F4FFC0180818A30A3
:1003D00048F08091DE00882F90E088579F4F29E0F9
:1003E000FC0120838091DE00882F90E088579F4F8A
:1003F000FC0180818823E9F48091DE00882F90E061
:1004000088579F4F21E0FC01208313C08091DE00BC
:10041000882F90E088579F4FFC0180818B3048F0F7
:100420008091DE00882F90E088579F4F2AE0FC01E2
:1004300020831092CE008091DE00882F90E08857B4
:100440009F4FFC0180819AE0692F0E943C1B8093A2
:10045000DC008091DE00882F90E088579F4FFC01E0
:1004600080819AE0692F0E943C1B892F8093DB00DA
:100470008091DB00809380008091DC00809381007C
:100480008091DE00882F90E04E962AE030E0B9019E
:100490000E94481B809382008091DE00882F90E0AC
:1004A0004E962AE030E0B9010E94481B9B01C90129
:1004B00080938300000086E390E0FC018081882F18
:1004C00090E0807490700097B1F386E390E0FC01B7
:1004D0008081882F90E080749070009709F414C197
:1004E00086E390E0FC01808188230CF40DC186E353
:1004F00090E0FC018081882F90E0807290700097DE
:1005000009F402C16FE070E080E090E00E94820098
:1005100086E390E0FC018081882F90E080749070E9
:10052000009709F4F1C086E390E0FC018081882304
:100530000CF4EAC086E390E0FC018081882F90E013
:1005400080729070009709F4DFC08091DE00882FE0
:1005500090E09C0128573F4FF90120812150885796
:100560009F4FFC0120838091DE00882321F0809141
:10057000DE008530C0F08091DE008A30A1F08091ED
:10058000DE008C3081F08091DE008D3061F0809152
:10059000DE008E3041F08091DE008F3021F08091BE
:1005A000DE008031A1F48091DE00882F90E0885732
:1005B0009F4FFC018081823008F45EC08091DE0094
:1005C000882F90E088579F4FFC01108255C0809182
:1005D000DE008823A1F48091DE00882F90E0885708
:1005E0009F4FFC018081853008F446C08091DE0079
:1005F000882F90E088579F4FFC0110823DC080916A
:10060000DE008B3039F58091DE00882F90E088572E
:100610009F4FFC0180818A3048F08091DE00882F56
:1006200090E088579F4F29E0FC0120838091DE00F5
:10063000882F90E088579F4FFC0180818823E1F448
:100640008091DE00882F90E088579F4F21E0FC01C9
:10065000208312C08091DE00882F90E088579F4F42
:10066000FC0180818B3040F08091DE00882F90E08B
:1006700088579F4FFC0110821092CE008091DE00BF
:10068000882F90E088579F4FFC0180819AE0692F66
:100690000E943C1B8093DC008091DE00882F90E05C
:1006A00088579F4FFC0180819AE0692F0E943C1B74
:1006B000892F8093DB008091DB0080938000809104
:1006C000DC00809381008091DE00882F90E04E96C0
:1006D0002AE030E0B9010E94481B8093820080919B
:1006E000DE00882F90E04E962AE030E0B9010E94AB
:1006F000481B9B01C90180938300000086E390E0C2
:10070000FC0180818823D4F786E390E0FC0180819E
:10071000882F90E080749070009709F441C086E3C0
:1007200090E0FC0180818823DCF586E390E0FC0109
:100730008081882F90E080729070009789F56FE03B
:1007400070E080E090E00E94820086E390E0FC018F
:100750008081882F90E080749070009709F186E383
:1007600090E0FC0180818823DCF486E390E0FC01CA
:100770008081882F90E080729070009789F41092A9
:10078000CE002091DE008091DE00882F90E0885717
:100790009F4FFC019081822F692F0E94490005C064
:1007A0008091CE008E3108F468CD8091CC008F7D91
:1007B0008093CC00DF91CF9108950F931F93CF9337
:1007C000DF93CDB7DEB78091CC0084608093CC00FE
:1007D0008091DE00082F10E08091DE000E9467000B
:1007E000282FC80188579F4FFC0120838091DE008D
:1007F000882F90E088579F4FFC0180819AE0692FF5
:100800000E943C1B8093DC008091DE00882F90E0EA
:1008100088579F4FFC0180819AE0692F0E943C1B02
:10082000892F8093DB008091DE00863050F080912C
:10083000DE00883030F48091CC0080648093CC005E
:1008400005C08091CC008F7B8093CC008091DB0031
:10085000809380008091DC00809381008091DE0095
:10086000882F90E04E962AE030E0B9010E94481BA4
:10087000809382008091DE00882F90E04E962AE0DF
:1008800030E0B9010E94481B9B01C901809383009D
:10089000000086E390E0FC018081882F90E0807268
:1008A00090700097B1F386E390E0FC01808188238B
:1008B00084F786E390E0FC018081882F90E08074CB
:1008C0009070009731F3F3C10E94E20086E390E05C
:1008D000FC018081882F90E080749070009709F06F
:1008E000ADC086E390E0FC01808188230CF0A6C0B7
:1008F00086E390E0FC018081882F90E08072907008
:10090000009709F49BC06FE070E080E090E00E94E7
:10091000820086E390E0FC018081882F90E0807463
:100920009070009709F08AC086E390E0FC01808116
:1009300088230CF083C086E390E0FC018081882F3F
:1009400090E080729070009709F478C08091DE008A
:100950008F5F8093DE008091DE00813110F0109275
:10096000DE008091DE00863050F08091DE0088301D
:1009700030F48091CC0080648093CC0005C08091DD
:10098000CC008F7B8093CC001092CE008091DE0053
:10099000082F10E08091DE000E946700282FC80118
:1009A00088579F4FFC0120838091DE00882F90E0C4
:1009B00088579F4FFC0180819AE0692F0E943C1B61
:1009C0008093DC008091DE00882F90E088579F4F55
:1009D000FC0180819AE0692F0E943C1B892F809343
:1009E000DB008091DB00809380008091DC008093AD
:1009F00081008091DE00882F90E04E962AE030E062
:100A0000B9010E94481B809382008091DE00882FEC
:100A100090E04E962AE030E0B9010E94481B9B010D
:100A2000C90180938300000086E390E0FC0180818F
:100A3000882F90E0807490700097B1F386E390E087
:100A4000FC018081882F90E080749070009709F4F9
:100A5000AAC086E390E0FC01808188230CF4A3C047
:100A600086E390E0FC018081882F90E08072907096
:100A7000009709F498C06FE070E080E090E00E9479
:100A8000820086E390E0FC018081882F90E08074F2
:100A90009070009709F487C086E390E0FC018081A4
:100AA00088230CF480C086E390E0FC018081882FCD
:100AB00090E080729070009709F475C08091DE001C
:100AC00081508093DE008091DE00813118F080E15A
:100AD0008093DE008091DE00863050F08091DE0051
:100AE000883030F48091CC0080648093CC0005C0C5
:100AF0008091CC008F7B8093CC001092CE008091AF
:100B0000DE00082F10E08091DE000E946700282F91
:100B1000C80188579F4FFC0120838091DE00882FF9
:100B200090E088579F4FFC0180819AE0692F0E94D6
:100B30003C1B8093DC008091DE00882F90E088577A
:100B40009F4FFC0180819AE0692F0E943C1B892FF6
:100B50008093DB008091DB00809380008091DC003B
:100B6000809381008091DE00882F90E04E962AE0ED
:100B700030E0B9010E94481B809382008091DE0022
:100B8000882F90E04E962AE030E0B9010E94481B81
:100B90009B01C90180938300000086E390E0FC0183
:100BA00080818823D4F786E390E0FC018081882F40
:100BB00090E080749070009709F43FC086E390E065
:100BC000FC0180818823CCF586E390E0FC018081E4
:100BD000882F90E080729070009779F56FE070E058
:100BE00080E090E00E94820086E390E0FC0180813A
:100BF000882F90E0807490700097F9F086E390E081
:100C0000FC0180818823CCF486E390E0FC018081A4
:100C1000882F90E080729070009779F41092CE0047
:100C20000E942801000086E390E0FC018081882F6B
:100C300090E0807290700097B1F386E390E0FC0141
:100C40008081882F90E080729070009781F586E314
:100C500090E0FC018081882F90E080749070009774
:100C600031F586E390E0FC018081882304F160EE99
:100C700071E080E090E00E94820086E390E0FC0159
:100C80008081882F90E080729070009781F486E3D5
:100C900090E0FC018081882F90E080749070009734
:100CA00031F486E390E0FC018081882334F4809164
:100CB000CE008E3108F408CE01C00000DF91CF9144
:100CC0001F910F910895CF93DF93CDB7DEB786E3E1
:100CD00090E0FC018081882F90E0807490700097F4
:100CE00009F586E390E0FC0180818823DCF063E273
:100CF00070E080E090E00E94820086E390E0FC01DA
:100D00008081882F90E080749070009759F486E37A
:100D100090E0FC01808188232CF081E08093E50045
:100D20001092E000DF91CF910895CF93DF93CDB77C
:100D3000DEB78091CC0081608093CC008091CD00A3
:100D400088608093CD001092E30085E390E025E376
:100D500030E0F90120812061FC01208385E390E0EF
:100D600025E330E0F90120812F7DFC012083809173
:100D7000650080938300809164008093820080915D
:100D80006300809381008091620080938000809155
:100D90008300880F982F990F990F980F80918200E8
:100DA000890F8093DD0010928F00000086E390E0B1
:100DB000FC018081882F90E0807290700097B1F3E1
:100DC00063E270E080E090E00E948200C3C00E9475
:100DD000E20086E390E0FC018081882F90E080743F
:100DE0009070009709F03FC06FE070E080E090E005
:100DF0000E94820086E390E0FC018081882F90E0D1
:100E000080749070009779F51092CE008091DD008B
:100E10008F5F8093DD008091DD00883110F01092AB
:100E2000DD008091DD009AE0692F0E943C1B8093D9
:100E300083008091DD009AE0692F0E943C1B892F7E
:100E400080938200000086E390E0FC018081882F7F
:100E500090E080749070009731F486E390E0FC019C
:100E60008081882384F386E390E0FC0180818823DD
:100E70000CF43EC06FE070E080E090E00E948200E1
:100E800086E390E0FC018081882394F11092CE00EB
:100E90008091DD0081508093DD008091DD008931FB
:100EA00018F087E18093DD008091DD009AE0692FE2
:100EB0000E943C1B809383008091DD009AE0692FA3
:100EC0000E943C1B892F80938200000086E390E003
:100ED000FC018081882364F086E390E0FC0180813E
:100EE000882F90E080749070009781F701C0000017
:100EF00086E390E0FC018081882F90E08072907002
:100F00000097A9F086E390E0FC018081882F90E0B3
:100F100080749070009731F486E390E0FC0180814A
:100F200088232CF48091CE008E3108F450CF80912C
:100F3000CE008E3138F463E270E080E090E00E94F1
:100F4000820008C08091CC0088608093CC0081E052
:100F50008093E50086E390E0FC018081882F90E09B
:100F6000807290700097A9F086E390E0FC01808188
:100F7000882F90E080749070009731F486E390E0C1
:100F8000FC01808188232CF48091CE008E3108F4FE
:100F9000AECF809182008093640080918300809323
:100FA00065008091E500882309F0FFC08091CD00A5
:100FB000877F8093CD008091CD0080618093CD00AC
:100FC0008091630080938100809162008093800013
:100FD00080916300880F982F990F990F980F809137
:100FE0006200890F8093DD00000086E390E0FC0141
:100FF0008081882F90E0807290700097B1F363E257
:1010000070E080E090E00E948200A4C00E94E200B4
:1010100086E390E0FC018081882F90E080749070DE
:101020000097C9F56FE070E080E090E00E948200D8
:1010300086E390E0FC018081882F90E080749070BE
:10104000009749F51092CE008091DD008F5F80936C
:10105000DD008091DD008C3311F41092DD00809171
:10106000DD009AE0692F0E943C1B809381008091F3
:10107000DD009AE0692F0E943C1B892F809380003D
:10108000000086E390E0FC018081882F90E080746E
:1010900090700097B1F386E390E0FC018081882393
:1010A000A4F16FE070E080E090E00E94820086E3AF
:1010B00090E0FC018081882344F11092CE00809161
:1010C000DD0081508093DD008091DD008F3F19F4B9
:1010D0008BE38093DD008091DD009AE0692F0E9410
:1010E0003C1B809381008091DD009AE0692F0E9473
:1010F0003C1B892F80938000000086E390E0FC0178
:1011000080818823D4F701C0000086E390E0FC01D1
:101110008081882F90E0807290700097A9F086E31C
:1011200090E0FC018081882F90E08074907000979F
:1011300031F486E390E0FC01808188232CF48091D7
:10114000CE008E3108F462CF63E270E080E090E080
:101150000E94820086E390E0FC018081882F90E06D
:10116000807290700097A9F086E390E0FC01808186
:10117000882F90E080749070009731F486E390E0BF
:10118000FC01808188232CF48091CE008E3108F4FC
:10119000BBCF809181008093630080918000809319
:1011A00062001092610010926000DF91CF9108956B
:1011B000CF93DF93CDB7DEB71092E30085E390E0E5
:1011C00025E330E0F901308120E12327FC01208371
:1011D0001AC061E070E080E090E00E94820080919F
:1011E000E6009091E70001969093E7008093E60077
:1011F0008091E6009091E700F1E0853F9F0718F0AD
:101200000E9495060AC086E390E0FC018081882F49
:1012100090E0807290700097E1F21092E7001092D7
:10122000E6008091CC00882F90E08170907000974C
:1012300009F046C285E390E025E330E0F901208122
:101240002F7EFC01208385E390E025E330E0F90167
:1012500020812062FC0120838091CC0082608093F9
:10126000CC008091CD0088608093CD008091870074
:101270008093830080918600809382008091850016
:10128000809381008091840080938000809183000E
:10129000880F982F990F990F980F80918200890FCE
:1012A0008093DD0063E270E080E090E00E948200C5
:1012B000C3C00E94E20086E390E0FC018081882F99
:1012C00090E080749070009709F03FC06FE070E08C
:1012D00080E090E00E94820086E390E0FC01808143
:1012E000882F90E080749070009779F51092CE006E
:1012F0008091DD008F5F8093DD008091DD0088317B
:1013000010F01092DD008091DD009AE0692F0E94BC
:101310003C1B809383008091DD009AE0692F0E943E
:101320003C1B892F80938200000086E390E0FC0143
:101330008081882F90E080749070009731F486E36C
:1013400090E0FC018081882384F386E390E0FC0137
:10135000808188230CF43EC06FE070E080E090E074
:101360000E94820086E390E0FC018081882394F152
:101370001092CE008091DD0081508093DD0080913D
:10138000DD00893118F087E18093DD008091DD0078
:101390009AE0692F0E943C1B809383008091DD00BE
:1013A0009AE0692F0E943C1B892F809382000000E5
:1013B00086E390E0FC018081882364F086E390E07E
:1013C000FC018081882F90E080749070009781F7F5
:1013D00001C0000086E390E0FC018081882F90E04E
:1013E000807290700097A9F086E390E0FC01808104
:1013F000882F90E080749070009731F486E390E03D
:10140000FC01808188232CF48091CE008E3108F479
:1014100050CF8091CE008E3138F463E270E080E0EE
:1014200090E00E94820008C08091CC008860809388
:10143000CC0081E08093E50086E390E0FC018081B0
:10144000882F90E0807290700097A9F086E390E07A
:10145000FC018081882F90E080749070009731F4B7
:1014600086E390E0FC01808188232CF48091CE00FB
:101470008E3108F4AECF1092CE008091830080931D
:10148000870080918200809386000E94630680918D
:10149000E500882309F014C18091CD00877F8093F7
:1014A000CD008091CD0080618093CD00809185003A
:1014B00080938100809184008093800080918100DE
:1014C000880F982F990F990F980F80918000890F9E
:1014D0008093DD00000086E390E0FC018081882F8E
:1014E00090E0807290700097B1F363E270E080E06A
:1014F00090E00E948200B6C00E94E20086E390E085
:10150000FC018081882F90E080749070009709F032
:101510003FC06FE070E080E090E00E94820086E3D0
:1015200090E0FC018081882F90E08074907000979B
:1015300079F51092CE008091DD008F5F8093DD0001
:101540008091DD008C3311F41092DD008091DD007C
:101550009AE0692F0E943C1B809381008091DD00FE
:101560009AE0692F0E943C1B892F80938000000025
:1015700086E390E0FC018081882F90E08074907079
:10158000009731F486E390E0FC018081882384F3A6
:1015900086E390E0FC01808188230CF43EC06FE07C
:1015A00070E080E090E00E94820086E390E0FC0121
:1015B0008081882394F11092CE008091DD008150CB
:1015C0008093DD008091DD008F3F19F48BE38093E1
:1015D000DD008091DD009AE0692F0E943C1B809322
:1015E00081008091DD009AE0692F0E943C1B892FC9
:1015F00080938000000086E390E0FC0180818823D6
:1016000064F086E390E0FC018081882F90E0807494
:101610009070009781F701C0000086E390E0FC0124
:101620008081882F90E0807290700097A9F086E307
:1016300090E0FC018081882F90E08074907000978A
:1016400031F486E390E0FC01808188232CF48091C2
:10165000CE008E3108F450CF63E270E080E090E07D
:101660000E94820086E390E0FC018081882F90E058
:10167000807290700097A9F086E390E0FC01808171
:10168000882F90E080749070009731F486E390E0AA
:10169000FC01808188232CF48091CE008E3108F4E7
:1016A000BBCF1092CE0081E08093E000809181005A
:1016B0008093850080918000809384000E9463065F
:1016C0001092E5008091CC008E7F8093CC008091B9
:1016D000CD00877F8093CD008091CD008F7E809359
:1016E000CD008091CC008D7F8093CC008091CC0088
:1016F000877F8093CC001092CE00DF91CF91089528
:10170000CF93DF93CDB7DEB780918800882F90E02C
:101710008230910509F45CC08330910534F4009760
:1017200069F081309105A1F084C08330910509F4FE
:1017300059C08430910509F468C07BC085E390E00E
:1017400025E330E0F90120812063FC01208371C092
:1017500085E390E0FC018081882F90E09C0120715E
:10176000307085E390E0FC018081882F90E08072EA
:101770009070822B932B0097B1F085E390E0FC01F1
:101780008081882F90E09C012071307085E390E08B
:10179000FC018081882F90E080729070822B932BC7
:1017A0008033910559F485E390E025E330E0F901B9
:1017B000308120E32327FC0120833BC085E390E0B8
:1017C00025E330E0F90120812F7CFC01208331C02A
:1017D00085E390E025E330E0F90120812F7CFC01D6
:1017E000208327C085E390E025E330E0F9012081E4
:1017F0002F7EFC01208385E390E025E330E0F901B2
:1018000020812062FC01208314C085E390E025E361
:1018100030E0F90120812F7EFC01208385E390E0F8
:1018200025E330E0F901308120E22327FC01208309
:101830000000DF91CF9108951F920F920FB60F9283
:1018400011242F933F934F935F936F937F938F93C5
:101850009F93AF93BF93EF93FF93CF93DF93CDB756
:10186000DEB785E590E0FC01108288E290E020E49C
:10187000FC0120838091ED009091EE000196909301
:10188000EE008093ED008091E400882309F06CC0A5
:101890008091CC00882F90E082709070009789F43E
:1018A0008091CC00882F90E081709070882349F45B
:1018B0008091CC00882F90E084709070009709F49C
:1018C0004CC08091CE008F5F8093CE008091CC0081
:1018D000882F90E084709070009711F00E94800B28
:1018E0008091CD00882F90E088709070009741F42F
:1018F0008091CC00882F90E084709070009771F0F8
:101900008091ED009091EE008230910521F48CE001
:101910008093DA0003C08FE08093DA008091CD00DD
:10192000882F90E080719070009741F48091CC00F6
:10193000882F90E080729070009791F08091ED0078
:101940009091EE008230910521F483E08093DA00DB
:1019500007C08FE08093DA0003C00E94800B01C0B3
:10196000000081E08093E3008091ED009091EE0013
:101970008230910509F012C18091CD00882F90E04E
:1019800081709070882309F468C0809166008F5F31
:1019900080936600809166008A3039F48091CF0090
:1019A0008F5F8093CF0010926600809167008F5FF9
:1019B00080936700809167008A3011F4109267006D
:1019C000809168008F5F80936800809168008A3002
:1019D00011F410926800809169008F5F8093690014
:1019E000809169008A3011F41092690080916A0038
:1019F0008F5F80936A0080916A008A3011F41092A0
:101A00006A0080916B008F5F80936B0080916B0008
:101A10008A3011F410926B008091CF008630E9F487
:101A20008091CD008E7F8093CD008DE060E00E949C
:101A300049001092CF0081E08093660082E080939D
:101A4000670083E08093680084E08093690085E00C
:101A500080936A0086E080936B001092E30080918F
:101A600060008F5F80936000809160008A3009F091
:101A700053C010926000809161008F5F809361007D
:101A800080916100863009F047C01092610080911A
:101A900062008F5F80936200809162008A30E1F57E
:101AA00010926200809163008F5F80936300809149
:101AB0006300863089F510926300809164008F5F27
:101AC0008093640080916500882359F480916400BC
:101AD0008A3039F410926400809165008F5F8093A2
:101AE000650080916500813059F4809164008A30EE
:101AF00039F410926400809165008F5F80936500D7
:101B000080916500823041F480916400843021F43A
:101B10001092640010926500809160008530D1F5CC
:101B2000809161008230B1F580916200823091F540
:101B300080916300853071F580916400823051F5A9
:101B400080916500882331F58091930085508093C2
:101B5000D6008091D6008823B4F49091CD0082E025
:101B600089278093CD008091CD00882F90E08270EE
:101B70009070009779F0909160008091D600890F65
:101B80008093600007C0909160008091D600890F1B
:101B9000809360001092EE001092ED008091920010
:101BA0008130D9F4809160008823B9F4809161007C
:101BB000882399F480916200882379F480916300EE
:101BC000882359F48091ED009091EE0081309105C9
:101BD00021F481E08093E20002C01092E200809143
:101BE000E0008130E1F490918400809162009817C8
:101BF000B1F49091850080916300981781F49091E1
:101C0000860080916400981751F49091870080912C
:101C10006500981721F481E08093E10002C01092E2
:101C2000E1008091E400813009F0A8C088E290E0F2
:101C3000FC018081882F90E080729070009709F0FD
:101C40009DC08EE18093CE001092E4001092F700C8
:101C50001092F8001092F9001092FA001092F00021
:101C60001092EF008AE090E09093750080937400EA
:101C70008091CC008F7E8093CC0086E290E02FE8AC
:101C8000FC01208387E290E027E0FC01208381E3D0
:101C900090E02FEFFC01208382E390E0FC011082B2
:101CA0008AE390E02FE3FC0120838BE390E0FC01CA
:101CB000108287E390E0FC01108288E390E02FEF30
:101CC000FC01208384E390E02FEFFC01208385E377
:101CD00090E0FC01108285E390E025E330E0F9011B
:101CE00020812063FC01208388E390E028E330E03A
:101CF000F90120812062FC01208388E390E028E341
:101D000030E0F90120812064FC01208388E390E029
:101D100028E330E0F90120812068FC01208389E577
:101D200090E021E4FC0120838FE08093DA0082E0E0
:101D30008093E80082E08093D70086E08093D8000B
:101D400088E08093D9008FE490E022E8FC012083B2
:101D50008EE490E029E1FC01208386E490E022E219
:101D600031E0FC013183208383E590E024E0FC0135
:101D7000208382E590E02FEFFC012083DF91CF915B
:101D8000FF91EF91BF91AF919F918F917F916F9153
:101D90005F914F913F912F910F900FBE0F901F9029
:101DA00018951F920F920FB60F9211242F933F9305
:101DB0004F936F937F938F939F93EF93FF93CF9363
:101DC000DF93CDB7DEB782E590E02FEFFC012083F3
:101DD00080916C008F5F80936C00809196008130C1
:101DE00009F0F0C08091D2009091D30001969093B9
:101DF000D3008093D20086E390E0FC018081882F9D
:101E000090E081709070009731F58091D400882324
:101E100029F41092D10081E08093D4001092D30075
:101E20001092D2008091D1008F5F8093D100809179
:101E3000D100813481F41092D1008091D0008F5F65
:101E40008093D0008091D500882F90E0880F991F53
:101E500081608093D5008091D000882339F186E39A
:101E600090E0FC018081882F90E081709070882341
:101E7000E9F08091D400813021F41092D1001092C9
:101E8000D4008091D1008F5F8093D1008091D100E8
:101E9000813461F41092D1008091D0008F5F8093E3
:101EA000D0008091D500880F8093D5008091D0001C
:101EB000883009F05FC01092D0001092D10080915C
:101EC000D500882F90E0817F9070813A910509F0CC
:101ED00051C08091D500882F90E08270907000975B
:101EE00051F088E390E028E330E0F90120812F7D74
:101EF000FC01208309C088E390E028E330E0F90189
:101F000020812062FC0120838091D500882F90E001
:101F100084709070009751F088E390E028E330E0FF
:101F2000F90120812F7BFC01208309C088E390E028
:101F300028E330E0F90120812064FC0120838091B6
:101F4000D500882F90E088709070009751F088E35A
:101F500090E028E330E0F90120812F77FC01208315
:101F600009C088E390E028E330E0F901208120688F
:101F7000FC0120838091D2009091D300FDE08D3A46
:101F80009F0748F188E390E028E330E0F9012081E1
:101F90002062FC01208388E390E028E330E0F9012F
:101FA00020812064FC01208388E390E028E330E076
:101FB000F90120812068FC0120831092D300109247
:101FC000D20009C088E390E028E330E0F9012081E5
:101FD000206EFC01208380916C00873309F00DC2D4
:101FE00080917300813009F008C210926C008091DA
:101FF000E8008F5F8093E8009091E8008091D8001E
:10200000981720F08091D7008093E80086E290E056
:1020100026E230E0F90120812064FC01208386E380
:1020200090E0FC018081882F90E080729070009792
:1020300021F480918C008130C1F086E390E0FC01B6
:102040008081882F90E080749070009721F48091B7
:102050008C00813051F086E390E0FC018081882380
:102060005CF180918C00813039F58091CC008068E2
:102070008093CC0080917600823378F482E390E004
:1020800022E330E0F90120812068FC012083809167
:1020900076008F5F8093760024C082E390E022E395
:1020A00030E0F90120812F77FC0120838091CC0062
:1020B0008F778093CC0015C08091CC008F77809370
:1020C000CC0080917600823360F482E390E022E3DA
:1020D00030E0F90120812F77FC0120838FEF80937E
:1020E000760086E390E0FC018081882F90E080728A
:1020F0009070009791F086E390E0FC018081882F3A
:1021000090E080749070009741F086E390E0FC01CD
:102110008081882314F4109276008091E100813050
:1021200041F48091E000813021F48091E30081301E
:1021300029F08091E200813009F047C080910301CD
:102140008F5F8093030180910301823350F482E317
:1021500090E022E330E0F90120812068FC01208337
:1021600037C080910301843650F482E390E022E38B
:1021700030E0F90120812F77FC01208329C0809174
:102180000301863950F482E390E022E330E0F90164
:1021900020812068FC0120831BC080910301883CC2
:1021A00060F482E390E022E330E0F90120812F77B0
:1021B000FC0120831092E2000BC080910301893C56
:1021C00038F088EC8093030103C01092030101C032
:1021D00000008091CC00882F90E082709070009772
:1021E00009F0ACC08091CC00882F90E08170907095
:1021F000882309F0A3C08091CC00882F90E08470E0
:102200009070009709F09AC08091CD00882F90E0DF
:1022100081709070882389F08091E800882F90E089
:102220002091E800222F30E02A593F4FF901208108
:1022300082589F4FFC01208381C08091E800882F45
:1022400090E02091E800222F30E0205A3F4FF90122
:10225000208188589F4FFC01208380916500880F62
:10226000982F990F990F980F80916400890F809390
:10227000DD0080918900882339F58091DD008D3063
:10228000B0F08091DD008C508093DD008091DD0006
:102290009AE0692F0E943C1B80937D008091DD00B5
:1022A0009AE0692F0E943C1B892F80937C008091CB
:1022B000DD00882349F48CE08093DD0081E0809389
:1022C0007D0082E080937C0080918A00882361F405
:1022D0008091DD008A3020F48EE08093DA0007C020
:1022E0008FE08093DA0003C08FE08093DA00809162
:1022F000CD00882F90E080729070009759F0809107
:10230000610080937B008091600080937A008CE074
:102310008093DA0080919700882381F48091E8000F
:10232000882F90E02091E800222F30E028583F4F7E
:10233000F901208182589F4FFC01208385E390E0C2
:1023400025E330E0F9012081207FFC0120838BE32D
:1023500090E02BE330E0F9012081207EFC01208316
:1023600082E390E022E330E0F9012081207BFC0150
:1023700020838091D90086958093D9008091D900DF
:10238000882319F488E08093D90085E390E025E361
:1023900030E0F9012081322F3F604091D900209137
:1023A000DA002423206F2323FC0120838091E8009E
:1023B000882F90E082589F4FFC0120818091E80097
:1023C000882F90E088589F4FFC018081281781F06A
:1023D0008091CD0084608093CD008091E800882FAB
:1023E00090E088589F4FFC0180818093DF0005C0FA
:1023F0008091CD008B7F8093CD008091CC00882F81
:1024000090E082709070009709F09CC18091CC00A0
:10241000882F90E081709070009709F093C18091AF
:10242000CC00882F90E084709070009709F08AC1EA
:102430008091CD00882F90E081709070009709F016
:1024400081C18091CD00882F90E0847090700097BA
:1024500009F449C180916C00882309F054C08BE3D2
:1024600090E02BE330E0F90140812091E800222F39
:1024700030E022583F4FF9012081222F30E02B54C9
:102480003F4FF9012081242BFC01208382E390E05F
:1024900022E330E0F90140812091E800222F30E072
:1024A00022583F4FF9012081222F30E026553F4F1F
:1024B000F9012081242BFC0120838BE390E02BE3A6
:1024C00030E0F9012081422F2091DF00222F30E0FF
:1024D0002B543F4FF901208120952423FC012083B8
:1024E00082E390E022E330E0F9012081422F209145
:1024F000DF00222F30E026553F4FF9012081209543
:102500002423FC0120838091E800882F90E08359E8
:102510009F4FFC01908180916C00981709F054C086
:102520008BE390E02BE330E0F9012081422F2091F2
:10253000E800222F30E022583F4FF9012081222F5E
:1025400030E02B543F4FF901208120952423FC01DA
:10255000208382E390E022E330E0F9012081422FE2
:102560002091E800222F30E022583F4FF9012081CE
:10257000222F30E026553F4FF9012081209524235A
:10258000FC0120838BE390E02BE330E0F9014081F4
:102590002091DF00222F30E02B543F4FF9012081A2
:1025A000242BFC01208382E390E022E330E0F90158
:1025B00040812091DF00222F30E026553F4FF90166
:1025C0002081242BFC01208380916C00863309F04C
:1025D000E8C08BE390E02BE330E0F9012081422F4B
:1025E0002091E800222F30E022583F4FF90120814E
:1025F000222F30E02B543F4FF901208120952423D6
:10260000FC01208382E390E022E330E0F9012081A5
:10261000422F2091E800222F30E022583F4FF9014D
:102620002081222F30E026553F4FF901208120954F
:102630002423FC0120838BE390E02BE330E0F901BD
:102640002081422F2091DF00222F30E02B543F4F7A
:10265000F901208120952423FC01208382E390E06E
:1026600022E330E0F9012081422F2091DF00222F68
:1026700030E026553F4FF901208120952423FC01AD
:1026800020838091E800882F90E09C0123593F4FE0
:10269000F9012081215083599F4FFC0120838091B3
:1026A000E800882F90E083599F4FFC0180818823A8
:1026B00009F077C08091E800882F90E02091DF003A
:1026C00082589F4FFC0120838091E800882F90E082
:1026D00083599F4F22E3FC0120838091CD008B7FA3
:1026E0008093CD005EC08BE390E02BE330E0F901F6
:1026F00040812091E800222F30E022583F4FF9011D
:102700002081222F30E02B543F4FF9012081242BD0
:10271000FC01208382E390E022E330E0F901408174
:102720002091E800222F30E022583F4FF90120810C
:10273000222F30E026553F4FF9012081242BFC0148
:1027400020832FC08BE390E02BE330E0F901408140
:102750002091E800222F30E022583F4FF9012081DC
:10276000222F30E02B543F4FF9012081242BFC0114
:10277000208382E390E022E330E0F9014081209160
:10278000E800222F30E022583F4FF9012081222F0C
:1027900030E026553F4FF9012081242BFC01208396
:1027A00001C00000DF91CF91FF91EF919F918F9138
:1027B0007F916F914F913F912F910F900FBE0F908E
:1027C0001F9018951F920F920FB60F9211242F93FE
:1027D0003F934F935F936F937F938F939F93AF93A9
:1027E000BF93EF93FF93CF93DF93CDB7DEB786E22E
:1027F00090E026E230E0F9012081277FFC01208370
:1028000087E290E0FC018081882F90E0863091057E
:1028100029F08730910509F448C126C284E290E08E
:10282000FC01208131818091EB009091EC00281710
:10283000390760F084E195E09093F0008093EF0019
:102840008FE990E090937500809374002091EB00E5
:102850003091EC0084E290E0FC0180819181A9013B
:10286000481B590BCA019093F2008093F1008091AC
:10287000F1009091F200AA2797FDA095BA2F209120
:10288000EF003091F000990140E050E0BC01CD0133
:102890000E941D1BDC01CB018093F3009093F40098
:1028A000A093F500B093F6008091F3009091F400AE
:1028B000A091F500B091F60020E034E040E050E057
:1028C000BC01CD010E945B1BDA01C9018093FB00B2
:1028D0009093FC00A093FD00B093FE008091F10066
:1028E0009091F200AA2797FDA095BA2F209174002D
:1028F00030917500990140E050E0BC01CD010E948B
:102900001D1BDC01CB018093F3009093F400A09396
:10291000F500B093F6008091F3009091F400A0913F
:10292000F500B091F60020E032E040E050E0BC015C
:10293000CD010E945B1BDA01C9018093F3009093E3
:10294000F400A093F500B093F6002091F7003091C9
:10295000F8004091F9005091FA008091F3009091B5
:10296000F400A091F500B091F600820F931FA41F10
:10297000B51F8093F7009093F800A093F900B093EF
:10298000FA008091F7009091F800A091F900B091C1
:10299000FA00893354E0950750E0A50750E0B507E9
:1029A0006CF088E394E0A0E0B0E08093F7009093AF
:1029B000F800A093F900B093FA001CC08091F700D2
:1029C0009091F800A091F900B091FA00883CEBEFEB
:1029D0009E07EFEFAE07EFEFBE0764F488EC9BEFC6
:1029E000AFEFBFEF8093F7009093F800A093F9004A
:1029F000B093FA002091FB003091FC004091FD0063
:102A00005091FE008091F7009091F800A091F9009C
:102A1000B091FA00820F931FA41FB51F8093FF008F
:102A200090930001A0930101B09302018091FF00F7
:102A300090910001A0910101B0910201BB234CF4DF
:102A40001092FF00109200011092010110920201F9
:102A500019C08091FF0090910001A0910101B091F7
:102A60000201893C9105A105B10564F088EC90E074
:102A7000A0E0B0E08093FF0090930001A0930101DB
:102A8000B09302012AE430E08091FF0090910001B0
:102A9000A0910101B0910201F9019183808387E245
:102AA00090E027E0FC012083DFC08091CD00882FDB
:102AB00090E081709070882339F088E592E09093DF
:102AC000EC008093EB00CAC084E290E0FC0120811E
:102AD000318180919000682F70E082E390E0689FE0
:102AE000A001699F500D789F500D11248091910095
:102AF000882F90E0880F991FBC01660F771F660F23
:102B0000771F860F971F840F951F8C509E4F281795
:102B10003907F0F08091CC00882F90E0847090709D
:102B20000097B1F480918E00282F30E0C901880F02
:102B3000991F820F931F880F991F880F991F820F6B
:102B4000931F81569E4F9093EC008093EB0086C0BC
:102B50008091CC00882F90E0807490700097B1F045
:102B600080918E00282F30E0C901880F991F820FB5
:102B7000931F880F991F880F991F820F931F8156EB
:102B80009E4F9093EC008093EB0068C084E290E04D
:102B9000FC012081318180919000682F70E082E3F8
:102BA00090E0689FA001699F500D789F500D1124FF
:102BB00080919100882F90E0880F991FBC01660FCB
:102BC000771F660F771F860F971F909581959F4FF0
:102BD000840F951F8C509E4F2817390700F5809160
:102BE000CC00882F90E0847090700097C1F48091A1
:102BF0008D00882F90E0880F991F9C01220F331FB2
:102C0000220F331F220F331FA901481B590BCA0182
:102C10008A529E4F9093EC008093EB001FC08091EE
:102C2000CC00882F90E0847090700097B9F080916C
:102C30008D00882F90E0880F991F9C01220F331F71
:102C4000220F331F220F331FF901E81BF90BCF01AD
:102C50008A529E4F9093EC008093EB0087E290E0C5
:102C600026E0FC012083000086E290E026E230E0CE
:102C7000F90120812860FC012083DF91CF91FF9131
:102C8000EF91BF91AF919F918F917F916F915F91E4
:102C90004F913F912F910F900FBE0F901F9018955D
:102CA0000F931F93CF93DF93CDB7DEB782E080936E
:102CB000AA0081E08093AB0080E48093AC0088E0C0
:102CC0008093AD0084E08093AE001092AF0010922C
:102CD000B0001092B1001092B2001092B3001092A6
:102CE000B4001092B5001092B6001092B700109286
:102CF000B8001092B90081E08093BA0082E080931E
:102D0000BB0084E08093BC0088E08093BD0080E13C
:102D10008093BE001092BF0081E390E02FEFFC0192
:102D2000208382E390E0FC0110828AE390E02FE3AD
:102D3000FC0120838BE390E0FC01108287E390E0AC
:102D4000FC01108288E390E02FEFFC01208384E3F4
:102D500090E02FEFFC01208385E390E0FC011082DE
:102D600081E08093990081E080939A0081E08093D4
:102D70009B0010929C0010929D0087E080939E0023
:102D800087E080939F001092A00085E08093A100CF
:102D900083E08093A2001092A30087E08093A400B8
:102DA00081E08093A5001092A6001092A70081E018
:102DB0008093A8001092A90088E390E028E330E017
:102DC000F90120812064FC01208388E390E028E35E
:102DD00030E0F90120812068FC01208388E390E045
:102DE00028E330E0F90120812062FC0120838FE498
:102DF00090E022E8FC0120838EE490E029E1FC01D0
:102E0000208386E490E022E231E0FC0131832083DC
:102E100088E290E020E4FC01208387E290E027E054
:102E2000FC01208386E290E02FE8FC01208383E50B
:102E300090E024E0FC01208382E590E02FEFFC018C
:102E4000208385E490E029E6FC01208382E490E081
:102E500028E0FC01208385E490E024E0FC0120834D
:102E600084E490E0FC0110821092E8003BC0809165
:102E7000E800082F10E08091E8000E946700282FEA
:102E8000C80188579F4FFC0120838091E800882F5C
:102E900090E088579F4FFC0180818B30F0F080914B
:102EA000E800882F90E02091E800222F30E027569C
:102EB0003F4FF901208188579F4FFC0120832091CB
:102EC000E8008091E800882F90E088579F4FFC0130
:102ED0009081822F692F0E9449008091E8008F5FC6
:102EE0008093E8008091E800813108F28FE08093C0
:102EF000DA0082E08093E80082E08093D70086E0E9
:102F00008093D80088E08093D90089E590E021E49F
:102F1000FC01208385E390E025E330E0F901208186
:102F20002061FC01208385E390E025E330E0F90196
:102F300020812062FC01208380918B00813021F46C
:102F400081E08093E00002C01092E0001092F00057
:102F50001092EF008AE090E09093750080937400E7
:102F60008FE590E020E8FC0120838091940081307F
:102F700039F48091CD0081608093CD0001C00000C4
:102F80000E94E20088E290E0FC018081882F90E0BE
:102F900080729070009799F78091CD00882F90E013
:102FA00081709070882309F474C086E390E0FC017E
:102FB0008081882F90E080729070009781F086E386
:102FC00090E0FC018081882F90E0807490700097E1
:102FD00031F086E390E0FC018081882384F26FE089
:102FE00070E080E090E00E94820086E390E0FC01C7
:102FF0008081882F90E080729070009789F086E33E
:1030000090E0FC018081882F90E0807490700097A0
:1030100039F086E390E0FC01808188230CF4AFCF87
:103020008091CD008E7F8093CD008DE060E00E9486
:1030300049001092CF0081E08093660082E0809387
:10304000670083E08093680084E08093690085E0F6
:1030500080936A0086E080936B00000086E390E036
:10306000FC018081882F90E0807290700097B1F30E
:1030700086E390E0FC018081882384F786E390E07A
:10308000FC018081882F90E080749070009731F36C
:10309000D3C286E390E0FC018081882F90E08074A9
:1030A0009070009781F486E390E0FC018081882392
:1030B00054F086E390E0FC018081882F90E08072DC
:1030C0009070009751F480917300882309F063C0D9
:1030D0008091E100813009F05EC060EE71E080E037
:1030E00090E00E94820086E390E0FC018081882FBE
:1030F00090E080749070009781F486E390E0FC018A
:103100008081882354F086E390E0FC018081882F41
:1031100090E080729070009741F480917300882352
:10312000D1F58091E1008130B1F58FE490E0FC01B0
:1031300010828EE490E0FC01108286E290E0FC01B7
:1031400010828BE390E0FC01108288E390E02EEF88
:10315000FC01208385E390E0FC01108282E390E093
:10316000FC0110821092730060EE71E080E090E04C
:103170000E948200000086E390E0FC0180818823A9
:10318000D4F786E390E0FC018081882F90E0807482
:103190009070009781F380917300882309F09BC0A1
:1031A00086E390E0FC018081882F90E0807290702F
:1031B000009789F086E390E0FC018081882F90E001
:1031C00080749070009739F086E390E0FC01808174
:1031D00088230CF480C06FE070E080E090E00E94F3
:1031E000820086E390E0FC018081882F90E080726D
:1031F0009070009789F086E390E0FC018081882F31
:1032000090E080749070009739F086E390E0FC01C4
:10321000808188230CF45FC01092F7001092F800B0
:103220001092F9001092FA001092F0001092EF0044
:103230008AE090E090937500809374008091CC00B8
:103240008F7E8093CC0087E290E027E0FC01208312
:1032500086E290E02FE8FC01208382E390E0FC010D
:10326000108285E390E0FC0110828FE490E022E878
:10327000FC0120838EE490E029E1FC01208386E4B8
:1032800090E022E231E0FC013183208386E490E08B
:1032900022E231E0FC013183208381E080937300DE
:1032A000000086E390E0FC018081882F90E080722E
:1032B00090700097B1F386E390E0FC018081882351
:1032C00084F786E390E0FC018081882F90E0807491
:1032D0009070009731F38091E100813009F06DC06A
:1032E0008091E000813009F068C0809173008130E6
:1032F00009F063C086E390E0FC018081882F90E0B4
:1033000080729070009789F086E390E0FC018081E4
:10331000882F90E080749070009739F086E390E0F9
:10332000FC01808188230CF448C06FE070E080E0ED
:1033300090E00E94820086E390E0FC018081882F6B
:1033400090E080729070009781F086E390E0FC013D
:103350008081882F90E080749070009731F086E330
:1033600090E0FC01808188236CF01092030182E3DD
:1033700090E022E330E0F9012081287FFC012083E6
:103380001092E000000086E390E0FC018081882F2D
:1033900090E0807290700097B1F386E390E0FC01BA
:1033A0008081882384F786E390E0FC018081882F68
:1033B00090E080749070009731F386E390E0FC0118
:1033C0008081882F90E080729070009709F05FC034
:1033D00086E390E0FC01808188230CF058C086E3EE
:1033E00090E0FC018081882F90E0807490700097BD
:1033F00009F44DC080917300813009F048C063E248
:1034000070E080E090E00E94820086E390E0FC01A2
:103410008081882F90E0807290700097C1F586E3DC
:1034200090E0FC018081882394F586E390E0FC0124
:103430008081882F90E080749070009741F1109205
:10344000E0000E94D80885E390E025E330E0F90130
:1034500020812063FC012083000086E390E0FC01D2
:103460008081882F90E0807290700097B1F386E39E
:1034700090E0FC018081882F90E08074907000972C
:1034800061F386E390E0FC018081882334F786E3D2
:1034900090E0FC018081882F90E08072907000970E
:1034A00009F075C086E390E0FC018081882F90E0F0
:1034B00080749070009709F06AC086E390E0FC0188
:1034C000808188230CF463C080917300813009F0FF
:1034D0005EC060EE71E080E090E00E94820086E3D2
:1034E00090E0FC018081882F90E0807290700097BE
:1034F00009F04DC086E390E0FC018081882F90E0C8
:1035000080749070009709F042C086E390E0FC015F
:1035100080818823E4F10E94DD038091CC008B7FC1
:103520008093CC008091CC008F7D8093CC008091E3
:10353000CC008F7B8093CC001092CE008FE08093E4
:10354000DA0080919500813039F48091CD0081605E
:103550008093CD0010929500000086E390E0FC017E
:103560008081882F90E0807290700097B1F386E39D
:1035700090E0FC018081882384F786E390E0FC01E1
:103580008081882F90E080749070009731F386E3FB
:1035900090E0FC01808188230CF43EC086E390E03B
:1035A000FC018081882F90E0807290700097A1F1DB
:1035B00086E390E0FC018081882F90E08074907019
:1035C000009751F180917300813031F563E270E032
:1035D00080E090E00E94820086E390E0FC01808120
:1035E00088234CF186E390E0FC018081882F90E0F5
:1035F000807290700097F9F086E390E0FC01808182
:10360000882F90E0807490700097A9F08091CD0091
:1036100080628093CD000FC08091CD00882F90E014
:1036200080729070009709F4AACC8091CD008F7DB4
:103630008093CD00A4CC0000A2CC629FD001739FE8
:10364000F001829FE00DF11D649FE00DF11D929F3E
:10365000F00D839FF00D749FF00D659FF00D99277D
:10366000729FB00DE11DF91F639FB00DE11DF91FA1
:10367000BD01CF0111240895991B79E004C0991F61
:10368000961708F0961B881F7A95C9F780950895BC
:1036900097FB092E07260AD077FD04D027D006D045
:1036A00000201AF4709561957F4F0895F6F7909574
:1036B00081959F4F089597FB092E05260ED057FD43
:1036C00004D028D00AD0001C38F45095409530958D
:1036D00021953F4F4F4F5F4F0895F6F79095809596
:1036E000709561957F4F8F4F9F4F0895AA1BBB1B0D
:1036F00051E107C0AA1FBB1FA617B70710F0A61BF2
:10370000B70B881F991F5A95A9F780959095BC0112
:10371000CD010895A1E21A2EAA1BBB1BFD010DC00D
:10372000AA1FBB1FEE1FFF1FA217B307E407F50771
:1037300020F0A21BB30BE40BF50B661F771F881F4D
:10374000991F1A9469F760957095809590959B01E3
:10375000AC01BD01CF010895E199FECF9FBB8EBBA7
:10376000E09A99278DB30895262FE199FECF9FBB4C
:103770008EBB2DBB0FB6F894E29AE19A0FBE01966C
:063780000895F894FFCF4C
:103786000505090503020102030405063632323235
:08379600323232013B00FF005A
:00000001FF
